{
  "_format": "hh3-artifact-1",
  "contractName": "PropertyRegistry",
  "sourceName": "contracts/PropertyRegistry.sol",
  "abi": [
    {
      "inputs": [
        {
          "internalType": "uint256",
          "name": "",
          "type": "uint256"
        }
      ],
      "name": "properties",
      "outputs": [
        {
          "internalType": "uint256",
          "name": "id",
          "type": "uint256"
        },
        {
          "internalType": "string",
          "name": "name",
          "type": "string"
        }
      ],
      "stateMutability": "view",
      "type": "function"
    },
    {
      "inputs": [],
      "name": "propertyCount",
      "outputs": [
        {
          "internalType": "uint256",
          "name": "",
          "type": "uint256"
        }
      ],
      "stateMutability": "view",
      "type": "function"
    },
    {
      "inputs": [
        {
          "internalType": "string",
          "name": "_name",
          "type": "string"
        },
        {
          "internalType": "address[]",
          "name": "_owners",
          "type": "address[]"
        },
        {
          "internalType": "uint256[]",
          "name": "_shares",
          "type": "uint256[]"
        }
      ],
      "name": "registerProperty",
      "outputs": [],
      "stateMutability": "nonpayable",
      "type": "function"
    }
  ],
  "bytecode": "0x6080604052348015600e575f5ffd5b506107338061001c5f395ff3fe608060405234801561000f575f5ffd5b506004361061003f575f3560e01c8063b526867214610043578063c361a33514610058578063f7b1080814610074575b5f5ffd5b61005661005136600461042d565b610095565b005b61006160015481565b6040519081526020015b60405180910390f35b610087610082366004610515565b61024a565b60405161006b92919061052c565b80518251146100eb5760405162461bcd60e51b815260206004820152601a60248201527f4f776e65727320616e6420736861726573206d69736d6174636800000000000060448201526064015b60405180910390fd5b60018054905f6100fa8361057c565b9091555050600180545f8181526020819052604090209081559081016101208582610615565b505f805b84518110156101f25782600201604051806040016040528087848151811061014e5761014e6106d0565b60200260200101516001600160a01b03168152602001868481518110610176576101766106d0565b6020908102919091018101519091528254600180820185555f94855293829020835160029092020180546001600160a01b0319166001600160a01b0390921691909117815591015191015583518490829081106101d5576101d56106d0565b6020026020010151826101e891906106e4565b9150600101610124565b50806064146102435760405162461bcd60e51b815260206004820152601860248201527f546f74616c207368617265206d7573742062652031303025000000000000000060448201526064016100e2565b5050505050565b5f602081905290815260409020805460018201805491929161026b90610594565b80601f016020809104026020016040519081016040528092919081815260200182805461029790610594565b80156102e25780601f106102b9576101008083540402835291602001916102e2565b820191905f5260205f20905b8154815290600101906020018083116102c557829003601f168201915b5050505050905082565b634e487b7160e01b5f52604160045260245ffd5b604051601f8201601f1916810167ffffffffffffffff81118282101715610329576103296102ec565b604052919050565b5f67ffffffffffffffff82111561034a5761034a6102ec565b5060051b60200190565b5f82601f830112610363575f5ffd5b813561037661037182610331565b610300565b8082825260208201915060208360051b860101925085831115610397575f5ffd5b602085015b838110156103c85780356001600160a01b03811681146103ba575f5ffd5b83526020928301920161039c565b5095945050505050565b5f82601f8301126103e1575f5ffd5b81356103ef61037182610331565b8082825260208201915060208360051b860101925085831115610410575f5ffd5b602085015b838110156103c8578035835260209283019201610415565b5f5f5f6060848603121561043f575f5ffd5b833567ffffffffffffffff811115610455575f5ffd5b8401601f81018613610465575f5ffd5b803567ffffffffffffffff81111561047f5761047f6102ec565b610492601f8201601f1916602001610300565b8181528760208385010111156104a6575f5ffd5b816020840160208301375f60208383010152809550505050602084013567ffffffffffffffff8111156104d7575f5ffd5b6104e386828701610354565b925050604084013567ffffffffffffffff8111156104ff575f5ffd5b61050b868287016103d2565b9150509250925092565b5f60208284031215610525575f5ffd5b5035919050565b828152604060208201525f82518060408401528060208501606085015e5f606082850101526060601f19601f8301168401019150509392505050565b634e487b7160e01b5f52601160045260245ffd5b5f6001820161058d5761058d610568565b5060010190565b600181811c908216806105a857607f821691505b6020821081036105c657634e487b7160e01b5f52602260045260245ffd5b50919050565b601f82111561061057805f5260205f20601f840160051c810160208510156105f15750805b601f840160051c820191505b81811015610243575f81556001016105fd565b505050565b815167ffffffffffffffff81111561062f5761062f6102ec565b6106438161063d8454610594565b846105cc565b6020601f821160018114610675575f831561065e5750848201515b5f19600385901b1c1916600184901b178455610243565b5f84815260208120601f198516915b828110156106a45787850151825560209485019460019092019101610684565b50848210156106c157868401515f19600387901b60f8161c191681555b50505050600190811b01905550565b634e487b7160e01b5f52603260045260245ffd5b808201808211156106f7576106f7610568565b9291505056fea264697066735822122038f20ef0f771a75de1ea2a687176c6d7d09425df67dddeacc1cb42d88f0d086664736f6c634300081c0033",
  "linkReferences": {},
  "deployedLinkReferences": {},
  "immutableReferences": {},
  "inputSourceName": "project/contracts/PropertyRegistry.sol",
  "buildInfoId": "solc-0_8_28-b236bcafd4b0d9357a400d6c954637b38abe79ef"
}