{
  "_format": "hh-sol-artifact-1",
  "contractName": "Fractionalizer",
  "sourceName": "contracts/Fractionalizer.sol",
  "abi": [
    {
      "inputs": [
        {
          "internalType": "address",
          "name": "_propertyRegistryAddress",
          "type": "address"
        }
      ],
      "stateMutability": "nonpayable",
      "type": "constructor"
    },
    {
      "anonymous": false,
      "inputs": [
        {
          "indexed": true,
          "internalType": "uint256",
          "name": "propertyId",
          "type": "uint256"
        },
        {
          "indexed": true,
          "internalType": "address",
          "name": "fractionalToken",
          "type": "address"
        }
      ],
      "name": "NFTFractionalized",
      "type": "event"
    },
    {
      "inputs": [
        {
          "internalType": "uint256",
          "name": "",
          "type": "uint256"
        }
      ],
      "name": "fractionalContracts",
      "outputs": [
        {
          "internalType": "address",
          "name": "",
          "type": "address"
        }
      ],
      "stateMutability": "view",
      "type": "function"
    },
    {
      "inputs": [
        {
          "internalType": "uint256",
          "name": "_propertyId",
          "type": "uint256"
        },
        {
          "internalType": "string",
          "name": "_tokenName",
          "type": "string"
        },
        {
          "internalType": "string",
          "name": "_tokenSymbol",
          "type": "string"
        },
        {
          "internalType": "uint256",
          "name": "_totalShares",
          "type": "uint256"
        }
      ],
      "name": "fractionalizeNFT",
      "outputs": [],
      "stateMutability": "nonpayable",
      "type": "function"
    },
    {
      "inputs": [
        {
          "internalType": "uint256",
          "name": "_propertyId",
          "type": "uint256"
        }
      ],
      "name": "getFractionalContract",
      "outputs": [
        {
          "internalType": "address",
          "name": "",
          "type": "address"
        }
      ],
      "stateMutability": "view",
      "type": "function"
    },
    {
      "inputs": [],
      "name": "propertyRegistry",
      "outputs": [
        {
          "internalType": "contract PropertyRegistry",
          "name": "",
          "type": "address"
        }
      ],
      "stateMutability": "view",
      "type": "function"
    }
  ],
  "bytecode": "0x6080604052348015600f57600080fd5b50604051611417380380611417833981016040819052602c916050565b600080546001600160a01b0319166001600160a01b0392909216919091179055607e565b600060208284031215606157600080fd5b81516001600160a01b0381168114607757600080fd5b9392505050565b61138a8061008d6000396000f3fe608060405234801561001057600080fd5b506004361061004c5760003560e01c806312f941861461005157806326b703a714610096578063612837f2146100a9578063724334c0146100d2575b600080fd5b61007a61005f3660046102ac565b6000908152600160205260409020546001600160a01b031690565b6040516001600160a01b03909116815260200160405180910390f35b60005461007a906001600160a01b031681565b61007a6100b73660046102ac565b6001602052600090815260409020546001600160a01b031681565b6100e56100e036600461036a565b6100e7565b005b6000546040516331a9108f60e11b81526004810186905233916001600160a01b031690636352211e90602401602060405180830381865afa158015610130573d6000803e3d6000fd5b505050506040513d601f19601f8201168201806040525081019061015491906103e4565b6001600160a01b0316146101a85760405162461bcd60e51b81526020600482015260166024820152752737ba103a343290383937b832b93a3c9037bbb732b960511b60448201526064015b60405180910390fd5b6000848152600160205260409020546001600160a01b0316156102065760405162461bcd60e51b8152602060048201526016602482015275105b1c9958591e48199c9858dd1a5bdb985b1a5e995960521b604482015260640161019f565b6000838383336040516102189061029f565b610225949392919061045a565b604051809103906000f080158015610241573d6000803e3d6000fd5b5060008681526001602052604080822080546001600160a01b0319166001600160a01b03851690811790915590519293509187917fc1ddc412062a28b171550699f465e300954b70e90f2c7f020e0b7aa4c7b7dd4891a35050505050565b610eb3806104a283390190565b6000602082840312156102be57600080fd5b5035919050565b634e487b7160e01b600052604160045260246000fd5b600082601f8301126102ec57600080fd5b813567ffffffffffffffff811115610306576103066102c5565b604051601f8201601f19908116603f0116810167ffffffffffffffff81118282101715610335576103356102c5565b60405281815283820160200185101561034d57600080fd5b816020850160208301376000918101602001919091529392505050565b6000806000806080858703121561038057600080fd5b84359350602085013567ffffffffffffffff81111561039e57600080fd5b6103aa878288016102db565b935050604085013567ffffffffffffffff8111156103c757600080fd5b6103d3878288016102db565b949793965093946060013593505050565b6000602082840312156103f657600080fd5b81516001600160a01b038116811461040d57600080fd5b9392505050565b6000815180845260005b8181101561043a5760208185018101518683018201520161041e565b506000602082860101526020601f19601f83011685010191505092915050565b60808152600061046d6080830187610414565b828103602084015261047f8187610414565b604084019590955250506001600160a01b03919091166060909101529291505056fe60a060405234801561001057600080fd5b50604051610eb3380380610eb383398101604081905261002f9161030e565b808484600361003e838261042a565b50600461004b828261042a565b5050506001600160a01b03811661007d57604051631e4fbdf760e01b8152600060048201526024015b60405180910390fd5b6100868161009f565b50608082905261009681836100f1565b5050505061050f565b600580546001600160a01b038381166001600160a01b0319831681179093556040519116919082907f8be0079c531659141344cd1fd0a4f28419497f9722a3daafe3b4186f6b6457e090600090a35050565b6001600160a01b03821661011b5760405163ec442f0560e01b815260006004820152602401610074565b6101276000838361012b565b5050565b6001600160a01b03831661015657806002600082825461014b91906104e8565b909155506101c89050565b6001600160a01b038316600090815260208190526040902054818110156101a95760405163391434e360e21b81526001600160a01b03851660048201526024810182905260448101839052606401610074565b6001600160a01b03841660009081526020819052604090209082900390555b6001600160a01b0382166101e457600280548290039055610203565b6001600160a01b03821660009081526020819052604090208054820190555b816001600160a01b0316836001600160a01b03167fddf252ad1be2c89b69c2b068fc378daa952ba7f163c4a11628f55a4df523b3ef8360405161024891815260200190565b60405180910390a3505050565b634e487b7160e01b600052604160045260246000fd5b600082601f83011261027c57600080fd5b81516001600160401b0381111561029557610295610255565b604051601f8201601f19908116603f011681016001600160401b03811182821017156102c3576102c3610255565b6040528181528382016020018510156102db57600080fd5b60005b828110156102fa576020818601810151838301820152016102de565b506000918101602001919091529392505050565b6000806000806080858703121561032457600080fd5b84516001600160401b0381111561033a57600080fd5b6103468782880161026b565b602087015190955090506001600160401b0381111561036457600080fd5b6103708782880161026b565b60408701516060880151919550935090506001600160a01b038116811461039657600080fd5b939692955090935050565b600181811c908216806103b557607f821691505b6020821081036103d557634e487b7160e01b600052602260045260246000fd5b50919050565b601f82111561042557806000526020600020601f840160051c810160208510156104025750805b601f840160051c820191505b81811015610422576000815560010161040e565b50505b505050565b81516001600160401b0381111561044357610443610255565b6104578161045184546103a1565b846103db565b6020601f82116001811461048b57600083156104735750848201515b600019600385901b1c1916600184901b178455610422565b600084815260208120601f198516915b828110156104bb578785015182556020948501946001909201910161049b565b50848210156104d95786840151600019600387901b60f8161c191681555b50505050600190811b01905550565b8082018082111561050957634e487b7160e01b600052601160045260246000fd5b92915050565b60805161098261053160003960008181610169015261032d01526109826000f3fe608060405234801561001057600080fd5b50600436106100ea5760003560e01c806370a082311161008c57806395d89b411161006657806395d89b41146101ec578063a9059cbb146101f4578063dd62ed3e14610207578063f2fde38b1461024057600080fd5b806370a08231146101a0578063715018a6146101c95780638da5cb5b146101d157600080fd5b806323b872dd116100c857806323b872dd14610142578063313ce567146101555780633a98ef391461016457806340c10f191461018b57600080fd5b806306fdde03146100ef578063095ea7b31461010d57806318160ddd14610130575b600080fd5b6100f7610253565b60405161010491906107cb565b60405180910390f35b61012061011b366004610835565b6102e5565b6040519015158152602001610104565b6002545b604051908152602001610104565b61012061015036600461085f565b6102ff565b60405160128152602001610104565b6101347f000000000000000000000000000000000000000000000000000000000000000081565b61019e610199366004610835565b610323565b005b6101346101ae36600461089c565b6001600160a01b031660009081526020819052604090205490565b61019e6103b8565b6005546040516001600160a01b039091168152602001610104565b6100f76103cc565b610120610202366004610835565b6103db565b6101346102153660046108be565b6001600160a01b03918216600090815260016020908152604080832093909416825291909152205490565b61019e61024e36600461089c565b6103e9565b606060038054610262906108f1565b80601f016020809104026020016040519081016040528092919081815260200182805461028e906108f1565b80156102db5780601f106102b0576101008083540402835291602001916102db565b820191906000526020600020905b8154815290600101906020018083116102be57829003601f168201915b5050505050905090565b6000336102f3818585610427565b60019150505b92915050565b60003361030d858285610439565b6103188585856104b8565b506001949350505050565b61032b610517565b7f00000000000000000000000000000000000000000000000000000000000000008161035660025490565b610360919061092b565b11156103aa5760405162461bcd60e51b81526020600482015260146024820152734578636565647320746f74616c2073686172657360601b60448201526064015b60405180910390fd5b6103b48282610544565b5050565b6103c0610517565b6103ca600061057a565b565b606060048054610262906108f1565b6000336102f38185856104b8565b6103f1610517565b6001600160a01b03811661041b57604051631e4fbdf760e01b8152600060048201526024016103a1565b6104248161057a565b50565b61043483838360016105cc565b505050565b6001600160a01b038381166000908152600160209081526040808320938616835292905220546000198110156104b257818110156104a357604051637dc7a0d960e11b81526001600160a01b038416600482015260248101829052604481018390526064016103a1565b6104b2848484840360006105cc565b50505050565b6001600160a01b0383166104e257604051634b637e8f60e11b8152600060048201526024016103a1565b6001600160a01b03821661050c5760405163ec442f0560e01b8152600060048201526024016103a1565b6104348383836106a1565b6005546001600160a01b031633146103ca5760405163118cdaa760e01b81523360048201526024016103a1565b6001600160a01b03821661056e5760405163ec442f0560e01b8152600060048201526024016103a1565b6103b4600083836106a1565b600580546001600160a01b038381166001600160a01b0319831681179093556040519116919082907f8be0079c531659141344cd1fd0a4f28419497f9722a3daafe3b4186f6b6457e090600090a35050565b6001600160a01b0384166105f65760405163e602df0560e01b8152600060048201526024016103a1565b6001600160a01b03831661062057604051634a1406b160e11b8152600060048201526024016103a1565b6001600160a01b03808516600090815260016020908152604080832093871683529290522082905580156104b257826001600160a01b0316846001600160a01b03167f8c5be1e5ebec7d5bd14f71427d1e84f3dd0314c0f7b2291e5b200ac8c7c3b9258460405161069391815260200190565b60405180910390a350505050565b6001600160a01b0383166106cc5780600260008282546106c1919061092b565b9091555061073e9050565b6001600160a01b0383166000908152602081905260409020548181101561071f5760405163391434e360e21b81526001600160a01b038516600482015260248101829052604481018390526064016103a1565b6001600160a01b03841660009081526020819052604090209082900390555b6001600160a01b03821661075a57600280548290039055610779565b6001600160a01b03821660009081526020819052604090208054820190555b816001600160a01b0316836001600160a01b03167fddf252ad1be2c89b69c2b068fc378daa952ba7f163c4a11628f55a4df523b3ef836040516107be91815260200190565b60405180910390a3505050565b602081526000825180602084015260005b818110156107f957602081860181015160408684010152016107dc565b506000604082850101526040601f19601f83011684010191505092915050565b80356001600160a01b038116811461083057600080fd5b919050565b6000806040838503121561084857600080fd5b61085183610819565b946020939093013593505050565b60008060006060848603121561087457600080fd5b61087d84610819565b925061088b60208501610819565b929592945050506040919091013590565b6000602082840312156108ae57600080fd5b6108b782610819565b9392505050565b600080604083850312156108d157600080fd5b6108da83610819565b91506108e860208401610819565b90509250929050565b600181811c9082168061090557607f821691505b60208210810361092557634e487b7160e01b600052602260045260246000fd5b50919050565b808201808211156102f957634e487b7160e01b600052601160045260246000fdfea2646970667358221220e7c191e58b84f383320d81445c7bd98c5acc046a00844770e282ed61dc879e9764736f6c634300081c0033a26469706673582212201e36621643d86dcc041c80e3a1123a88a4adf3adbae8de6a6e84820f324645c964736f6c634300081c0033",
  "linkReferences": {},
  "deployedLinkReferences": {}
}