{
  "_format": "hh-sol-artifact-1",
  "contractName": "MediatedTransfer",
  "sourceName": "contracts/MediatedTransfer.sol",
  "abi": [
    {
      "inputs": [
        {
          "internalType": "address",
          "name": "_propertyRegistryAddress",
          "type": "address"
        }
      ],
      "stateMutability": "nonpayable",
      "type": "constructor"
    },
    {
      "anonymous": false,
      "inputs": [
        {
          "indexed": true,
          "internalType": "uint256",
          "name": "propertyId",
          "type": "uint256"
        },
        {
          "indexed": true,
          "internalType": "address",
          "name": "mediator",
          "type": "address"
        }
      ],
      "name": "TransferApprovedByMediator",
      "type": "event"
    },
    {
      "anonymous": false,
      "inputs": [
        {
          "indexed": true,
          "internalType": "uint256",
          "name": "propertyId",
          "type": "uint256"
        },
        {
          "indexed": true,
          "internalType": "address",
          "name": "owner",
          "type": "address"
        }
      ],
      "name": "TransferApprovedByOwner",
      "type": "event"
    },
    {
      "anonymous": false,
      "inputs": [
        {
          "indexed": true,
          "internalType": "uint256",
          "name": "propertyId",
          "type": "uint256"
        }
      ],
      "name": "TransferExecuted",
      "type": "event"
    },
    {
      "anonymous": false,
      "inputs": [
        {
          "indexed": true,
          "internalType": "uint256",
          "name": "propertyId",
          "type": "uint256"
        },
        {
          "indexed": true,
          "internalType": "address",
          "name": "mediator",
          "type": "address"
        }
      ],
      "name": "TransferProposed",
      "type": "event"
    },
    {
      "anonymous": false,
      "inputs": [
        {
          "indexed": true,
          "internalType": "uint256",
          "name": "propertyId",
          "type": "uint256"
        },
        {
          "indexed": true,
          "internalType": "address",
          "name": "mediator",
          "type": "address"
        }
      ],
      "name": "TransferRejected",
      "type": "event"
    },
    {
      "inputs": [
        {
          "internalType": "uint256",
          "name": "",
          "type": "uint256"
        },
        {
          "internalType": "address",
          "name": "",
          "type": "address"
        }
      ],
      "name": "approvals",
      "outputs": [
        {
          "internalType": "bool",
          "name": "",
          "type": "bool"
        }
      ],
      "stateMutability": "view",
      "type": "function"
    },
    {
      "inputs": [
        {
          "internalType": "uint256",
          "name": "_propertyId",
          "type": "uint256"
        }
      ],
      "name": "approveTransfer",
      "outputs": [],
      "stateMutability": "nonpayable",
      "type": "function"
    },
    {
      "inputs": [
        {
          "internalType": "uint256",
          "name": "_propertyId",
          "type": "uint256"
        }
      ],
      "name": "approveTransferByMediator",
      "outputs": [],
      "stateMutability": "nonpayable",
      "type": "function"
    },
    {
      "inputs": [
        {
          "internalType": "uint256",
          "name": "_propertyId",
          "type": "uint256"
        }
      ],
      "name": "executeTransfer",
      "outputs": [],
      "stateMutability": "nonpayable",
      "type": "function"
    },
    {
      "inputs": [],
      "name": "propertyRegistry",
      "outputs": [
        {
          "internalType": "contract PropertyRegistry",
          "name": "",
          "type": "address"
        }
      ],
      "stateMutability": "view",
      "type": "function"
    },
    {
      "inputs": [
        {
          "internalType": "uint256",
          "name": "_propertyId",
          "type": "uint256"
        },
        {
          "internalType": "address",
          "name": "_mediator",
          "type": "address"
        },
        {
          "internalType": "address[]",
          "name": "_nextOwners",
          "type": "address[]"
        }
      ],
      "name": "proposeTransfer",
      "outputs": [],
      "stateMutability": "nonpayable",
      "type": "function"
    },
    {
      "inputs": [
        {
          "internalType": "uint256",
          "name": "_propertyId",
          "type": "uint256"
        }
      ],
      "name": "rejectTransfer",
      "outputs": [],
      "stateMutability": "nonpayable",
      "type": "function"
    },
    {
      "inputs": [
        {
          "internalType": "uint256",
          "name": "",
          "type": "uint256"
        }
      ],
      "name": "transferProposals",
      "outputs": [
        {
          "internalType": "uint256",
          "name": "propertyId",
          "type": "uint256"
        },
        {
          "internalType": "address",
          "name": "mediator",
          "type": "address"
        },
        {
          "internalType": "bool",
          "name": "isApprovedByMediator",
          "type": "bool"
        },
        {
          "internalType": "bool",
          "name": "isExecuted",
          "type": "bool"
        }
      ],
      "stateMutability": "view",
      "type": "function"
    }
  ],
  "bytecode": "0x6080604052348015600f57600080fd5b50604051610e6a380380610e6a833981016040819052602c916050565b600080546001600160a01b0319166001600160a01b0392909216919091179055607e565b600060208284031215606157600080fd5b81516001600160a01b0381168114607757600080fd5b9392505050565b610ddd8061008d6000396000f3fe608060405234801561001057600080fd5b50600436106100885760003560e01c8063420b86e91161005b578063420b86e91461015b578063ab2850da1461016e578063cacca4a0146101ac578063f05d5752146101bf57600080fd5b8063012fe7fd1461008d57806312effc321461010857806326b703a71461011d5780633707412c14610148575b600080fd5b6100d361009b366004610aa2565b60016020819052600091825260409091208054918101546004909101546001600160a01b039091169060ff8082169161010090041684565b604080519485526001600160a01b03909316602085015290151591830191909152151560608201526080015b60405180910390f35b61011b610116366004610aa2565b6101d2565b005b600054610130906001600160a01b031681565b6040516001600160a01b0390911681526020016100ff565b61011b610156366004610aa2565b6102e4565b61011b610169366004610b3b565b6103af565b61019c61017c366004610bfd565b600260209081526000928352604080842090915290825290205460ff1681565b60405190151581526020016100ff565b61011b6101ba366004610aa2565b610622565b61011b6101cd366004610aa2565b61074c565b6000818152600160205260408120805490910361020a5760405162461bcd60e51b815260040161020190610c2d565b60405180910390fd5b60018101546001600160a01b031633146102665760405162461bcd60e51b815260206004820152601860248201527f4f6e6c79206d65646961746f722063616e2072656a65637400000000000000006044820152606401610201565b6000828152600160208190526040822082815590810180546001600160a01b0319169055906102986002830182610a07565b6102a6600383016000610a07565b50600401805461ffff19169055604051339083907fab679723ccc9fa403af3fa77eeb98dd93b3317525bdccfbf9d9eaa3070eebc5690600090a35050565b600081815260016020526040812080549091036103135760405162461bcd60e51b815260040161020190610c2d565b60018101546001600160a01b0316331461036f5760405162461bcd60e51b815260206004820152601960248201527f4f6e6c79206d65646961746f722063616e20617070726f7665000000000000006044820152606401610201565b60048101805460ff19166001179055604051339083907f661b0c6ee17de86d218667aef876d0e38372ce9913b6db761878647d2b1bdb6f90600090a35050565b6000805460405163ee4525d560e01b8152600481018690526001600160a01b039091169063ee4525d590602401600060405180830381865afa1580156103f9573d6000803e3d6000fd5b505050506040513d6000823e601f3d908101601f191682016040526104219190810190610cc4565b509050600081511161046e5760405162461bcd60e51b815260206004820152601660248201527550726f706572747920686173206e6f206f776e65727360501b6044820152606401610201565b6000805b82518110156104be57336001600160a01b031683828151811061049757610497610d91565b60200260200101516001600160a01b0316036104b657600191506104be565b600101610472565b50806105185760405162461bcd60e51b8152602060048201526024808201527f4f6e6c7920616e206f776e65722063616e2070726f706f73652061207472616e60448201526339b332b960e11b6064820152608401610201565b6040805160c0810182528681526001600160a01b0386811660208084019182528385018781526060850189905260006080860181905260a086018190528b8152600180845296902085518155925195830180546001600160a01b0319169690941695909517909255925180519293926105979260028501920190610a28565b50606082015180516105b3916003840191602090910190610a28565b5060808201516004909101805460a09093015115156101000261ff00199215159290921661ffff19909316929092171790556040516001600160a01b0385169086907fe2315b7139fbafadb1a0a71e13035af4872231af529029342b5682b942a3008090600090a35050505050565b600081815260016020526040812080549091036106515760405162461bcd60e51b815260040161020190610c2d565b6000805b60028301548110156106ab57336001600160a01b031683600201828154811061068057610680610d91565b6000918252602090912001546001600160a01b0316036106a357600191506106ab565b600101610655565b50806106f95760405162461bcd60e51b815260206004820152601960248201527f4f6e6c7920616e206f776e65722063616e20617070726f7665000000000000006044820152606401610201565b6000838152600260209081526040808320338085529252808320805460ff1916600117905551909185917ff9e902824a3a5861bb7ba306482051360221244aef767e8f79813b33acc3e8c19190a3505050565b6000818152600160205260408120805490910361077b5760405162461bcd60e51b815260040161020190610c2d565b6004810154610100900460ff16156107d55760405162461bcd60e51b815260206004820152601960248201527f5472616e7366657220616c7265616479206578656375746564000000000000006044820152606401610201565b600481015460ff166108295760405162461bcd60e51b815260206004820152601960248201527f4d65646961746f7220686173206e6f7420617070726f766564000000000000006044820152606401610201565b60005b60028201548110156108de5760026000848152602001908152602001600020600083600201838154811061086257610862610d91565b60009182526020808320909101546001600160a01b0316835282019290925260400190205460ff166108d65760405162461bcd60e51b815260206004820152601760248201527f416c6c206f776e657273206d75737420617070726f76650000000000000000006044820152606401610201565b60010161082c565b5060038101546109305760405162461bcd60e51b815260206004820152601860248201527f4e6f206e657874206f776e6572732073706563696669656400000000000000006044820152606401610201565b600080546003830180546001600160a01b039092169263d2ad92b9928692919061095c5761095c610d91565b60009182526020909120015460405160e084901b6001600160e01b031916815260048101929092526001600160a01b03166024820152604401600060405180830381600087803b1580156109af57600080fd5b505af11580156109c3573d6000803e3d6000fd5b50505060048201805461ff0019166101001790555060405182907ff49c7151a34f944c290bea0b71e18d61f02bfd24115ac372517b6ba94ebd954690600090a25050565b5080546000825590600052602060002090810190610a259190610a8d565b50565b828054828255906000526020600020908101928215610a7d579160200282015b82811115610a7d57825182546001600160a01b0319166001600160a01b03909116178255602090920191600190910190610a48565b50610a89929150610a8d565b5090565b5b80821115610a895760008155600101610a8e565b600060208284031215610ab457600080fd5b5035919050565b6001600160a01b0381168114610a2557600080fd5b634e487b7160e01b600052604160045260246000fd5b604051601f8201601f1916810167ffffffffffffffff81118282101715610b0f57610b0f610ad0565b604052919050565b600067ffffffffffffffff821115610b3157610b31610ad0565b5060051b60200190565b600080600060608486031215610b5057600080fd5b833592506020840135610b6281610abb565b9150604084013567ffffffffffffffff811115610b7e57600080fd5b8401601f81018613610b8f57600080fd5b8035610ba2610b9d82610b17565b610ae6565b8082825260208201915060208360051b850101925088831115610bc457600080fd5b6020840193505b82841015610bef578335610bde81610abb565b825260209384019390910190610bcb565b809450505050509250925092565b60008060408385031215610c1057600080fd5b823591506020830135610c2281610abb565b809150509250929050565b602080825260159082015274151c985b9cd9995c881b9bdd081c1c9bdc1bdcd959605a1b604082015260600190565b600082601f830112610c6d57600080fd5b8151610c7b610b9d82610b17565b8082825260208201915060208360051b860101925085831115610c9d57600080fd5b602085015b83811015610cba578051835260209283019201610ca2565b5095945050505050565b60008060408385031215610cd757600080fd5b825167ffffffffffffffff811115610cee57600080fd5b8301601f81018513610cff57600080fd5b8051610d0d610b9d82610b17565b8082825260208201915060208360051b850101925087831115610d2f57600080fd5b6020840193505b82841015610d5a578351610d4981610abb565b825260209384019390910190610d36565b80955050505050602083015167ffffffffffffffff811115610d7b57600080fd5b610d8785828601610c5c565b9150509250929050565b634e487b7160e01b600052603260045260246000fdfea264697066735822122024e8c9c63c73210229e0d078526e4ff936cce8c35be3b5146d1eb21f96eeb99664736f6c634300081c0033",
  "linkReferences": {},
  "deployedLinkReferences": {}
}