{
  "_format": "hh-sol-artifact-1",
  "contractName": "PropertyRegistry",
  "sourceName": "contracts/PropertyRegistry.sol",
  "abi": [
    {
      "anonymous": false,
      "inputs": [
        {
          "indexed": true,
          "internalType": "uint256",
          "name": "propertyId",
          "type": "uint256"
        },
        {
          "indexed": true,
          "internalType": "address",
          "name": "from",
          "type": "address"
        },
        {
          "indexed": true,
          "internalType": "address",
          "name": "to",
          "type": "address"
        }
      ],
      "name": "PropertyFullyTransferred",
      "type": "event"
    },
    {
      "anonymous": false,
      "inputs": [
        {
          "indexed": true,
          "internalType": "uint256",
          "name": "propertyId",
          "type": "uint256"
        },
        {
          "indexed": false,
          "internalType": "string",
          "name": "name",
          "type": "string"
        }
      ],
      "name": "PropertyRegistered",
      "type": "event"
    },
    {
      "anonymous": false,
      "inputs": [
        {
          "indexed": true,
          "internalType": "uint256",
          "name": "propertyId",
          "type": "uint256"
        },
        {
          "indexed": true,
          "internalType": "address",
          "name": "from",
          "type": "address"
        },
        {
          "indexed": true,
          "internalType": "address",
          "name": "to",
          "type": "address"
        },
        {
          "indexed": false,
          "internalType": "uint256",
          "name": "percent",
          "type": "uint256"
        }
      ],
      "name": "ShareTransferred",
      "type": "event"
    },
    {
      "inputs": [
        {
          "internalType": "uint256",
          "name": "_propertyId",
          "type": "uint256"
        }
      ],
      "name": "getOwners",
      "outputs": [
        {
          "internalType": "address[]",
          "name": "ownerAddresses",
          "type": "address[]"
        },
        {
          "internalType": "uint256[]",
          "name": "ownerShares",
          "type": "uint256[]"
        }
      ],
      "stateMutability": "view",
      "type": "function"
    },
    {
      "inputs": [
        {
          "internalType": "uint256",
          "name": "_propertyId",
          "type": "uint256"
        }
      ],
      "name": "getProperty",
      "outputs": [
        {
          "internalType": "uint256",
          "name": "id",
          "type": "uint256"
        },
        {
          "internalType": "string",
          "name": "name",
          "type": "string"
        },
        {
          "internalType": "uint256",
          "name": "ownersCount",
          "type": "uint256"
        },
        {
          "internalType": "string",
          "name": "partnershipAgreementUrl",
          "type": "string"
        },
        {
          "internalType": "string",
          "name": "maintenanceAgreementUrl",
          "type": "string"
        },
        {
          "internalType": "string",
          "name": "rentAgreementUrl",
          "type": "string"
        },
        {
          "internalType": "string",
          "name": "imageUrl",
          "type": "string"
        }
      ],
      "stateMutability": "view",
      "type": "function"
    },
    {
      "inputs": [],
      "name": "propertyCount",
      "outputs": [
        {
          "internalType": "uint256",
          "name": "",
          "type": "uint256"
        }
      ],
      "stateMutability": "view",
      "type": "function"
    },
    {
      "inputs": [
        {
          "internalType": "string",
          "name": "_name",
          "type": "string"
        },
        {
          "internalType": "address[]",
          "name": "_owners",
          "type": "address[]"
        },
        {
          "internalType": "uint256[]",
          "name": "_shares",
          "type": "uint256[]"
        },
        {
          "internalType": "string",
          "name": "_partnershipAgreementUrl",
          "type": "string"
        },
        {
          "internalType": "string",
          "name": "_maintenanceAgreementUrl",
          "type": "string"
        },
        {
          "internalType": "string",
          "name": "_rentAgreementUrl",
          "type": "string"
        },
        {
          "internalType": "string",
          "name": "_imageUrl",
          "type": "string"
        }
      ],
      "name": "registerProperty",
      "outputs": [],
      "stateMutability": "nonpayable",
      "type": "function"
    },
    {
      "inputs": [
        {
          "internalType": "uint256",
          "name": "_propertyId",
          "type": "uint256"
        },
        {
          "internalType": "address",
          "name": "_to",
          "type": "address"
        }
      ],
      "name": "transferFullOwnership",
      "outputs": [],
      "stateMutability": "nonpayable",
      "type": "function"
    },
    {
      "inputs": [
        {
          "internalType": "uint256",
          "name": "_propertyId",
          "type": "uint256"
        },
        {
          "internalType": "address",
          "name": "_to",
          "type": "address"
        },
        {
          "internalType": "uint256",
          "name": "_percent",
          "type": "uint256"
        }
      ],
      "name": "transferShare",
      "outputs": [],
      "stateMutability": "nonpayable",
      "type": "function"
    }
  ],
  "bytecode": "0x6080604052348015600f57600080fd5b506118648061001f6000396000f3fe608060405234801561001057600080fd5b50600436106100625760003560e01c806332665ffb146100675780633b75b91f14610096578063bf93a2a0146100ab578063c361a335146100be578063d2ad92b9146100d5578063ee4525d5146100e8575b600080fd5b61007a610075366004611100565b610109565b60405161008d979695949392919061115f565b60405180910390f35b6100a96100a43660046113a0565b61045a565b005b6100a96100b93660046114dc565b6107b6565b6100c760015481565b60405190815260200161008d565b6100a96100e3366004611512565b610b30565b6100fb6100f6366004611100565b610db7565b60405161008d92919061153e565b60008181526020819052604081206003015460609082908290819081908190889060ff166101525760405162461bcd60e51b8152600401610149906115c9565b60405180910390fd5b6000898152602081905260409020805460028201546001830180549091906004850190600586019060068701906007880190869061018f90611600565b80601f01602080910402602001604051908101604052809291908181526020018280546101bb90611600565b80156102085780601f106101dd57610100808354040283529160200191610208565b820191906000526020600020905b8154815290600101906020018083116101eb57829003601f168201915b5050505050955083805461021b90611600565b80601f016020809104026020016040519081016040528092919081815260200182805461024790611600565b80156102945780601f1061026957610100808354040283529160200191610294565b820191906000526020600020905b81548152906001019060200180831161027757829003601f168201915b505050505093508280546102a790611600565b80601f01602080910402602001604051908101604052809291908181526020018280546102d390611600565b80156103205780601f106102f557610100808354040283529160200191610320565b820191906000526020600020905b81548152906001019060200180831161030357829003601f168201915b5050505050925081805461033390611600565b80601f016020809104026020016040519081016040528092919081815260200182805461035f90611600565b80156103ac5780601f10610381576101008083540402835291602001916103ac565b820191906000526020600020905b81548152906001019060200180831161038f57829003601f168201915b505050505091508080546103bf90611600565b80601f01602080910402602001604051908101604052809291908181526020018280546103eb90611600565b80156104385780601f1061040d57610100808354040283529160200191610438565b820191906000526020600020905b81548152906001019060200180831161041b57829003601f168201915b5050505050905098509850985098509850985098505050919395979092949650565b600087511161049b5760405162461bcd60e51b815260206004820152600d60248201526c13985b59481c995c5d5a5c9959609a1b6044820152606401610149565b84518651146104ec5760405162461bcd60e51b815260206004820152601a60248201527f4f776e65727320616e6420736861726573206d69736d617463680000000000006044820152606401610149565b600086511161053d5760405162461bcd60e51b815260206004820152601b60248201527f4174206c65617374206f6e65206f776e657220726571756972656400000000006044820152606401610149565b6000805b87518110156105f45760006001600160a01b03168882815181106105675761056761163a565b60200260200101516001600160a01b0316036105c55760405162461bcd60e51b815260206004820152601c60248201527f4f776e65722063616e6e6f74206265207a65726f2061646472657373000000006044820152606401610149565b8681815181106105d7576105d761163a565b6020026020010151826105ea9190611666565b9150600101610541565b50806064146106455760405162461bcd60e51b815260206004820152601760248201527f546f74616c207368617265206d757374206265203130300000000000000000006044820152606401610149565b600180549060006106558361167f565b909155505060018054600081815260208190526040902090815590810161067c8a826116e7565b5060038101805460ff191660011790556004810161069a87826116e7565b50600581016106a986826116e7565b50600681016106b885826116e7565b50600781016106c784826116e7565b5060005b8851811015610770578160020160405180604001604052808b84815181106106f5576106f561163a565b60200260200101516001600160a01b031681526020018a848151811061071d5761071d61163a565b602090810291909101810151909152825460018082018555600094855293829020835160029092020180546001600160a01b0319166001600160a01b0390921691909117815591015190820155016106cb565b506001547fce0a48c8363597336cae686f033156384659682c08d76ff460e2d3ef0c899cae8a6040516107a391906117a5565b60405180910390a2505050505050505050565b600083815260208190526040902060030154839060ff166107e95760405162461bcd60e51b8152600401610149906115c9565b8360006107f68233610f50565b509050806108165760405162461bcd60e51b8152600401610149906117bf565b6001600160a01b03851661086c5760405162461bcd60e51b815260206004820181905260248201527f526563697069656e742063616e6e6f74206265207a65726f20616464726573736044820152606401610149565b336001600160a01b038616036108be5760405162461bcd60e51b815260206004820152601760248201527621b0b73737ba103a3930b739b332b9103a379039b2b63360491b6044820152606401610149565b6000841180156108cf575060648411155b61090d5760405162461bcd60e51b815260206004820152600f60248201526e125b9d985b1a59081c195c98d95b9d608a1b6044820152606401610149565b600086815260208190526040812090806109278933610f50565b91509150816109785760405162461bcd60e51b815260206004820152601960248201527f53656e646572206e6f7420666f756e64206173206f776e6572000000000000006044820152606401610149565b600083600201828154811061098f5761098f61163a565b9060005260206000209060020201905087816001015410156109f35760405162461bcd60e51b815260206004820152601c60248201527f4e6f7420656e6f75676820736861726520746f207472616e73666572000000006044820152606401610149565b87816001016000828254610a079190611805565b909155506000905080610a1a8c8c610f50565b915091508115610a655789866002018281548110610a3a57610a3a61163a565b90600052602060002090600202016001016000828254610a5a9190611666565b90915550610abe9050565b604080518082019091526001600160a01b038c8116825260208083018d815260028a81018054600180820183556000928352949091209551910290940180546001600160a01b0319169490931693909317825591519101555b8260010154600003610ad457610ad48c85610fd4565b8a6001600160a01b0316336001600160a01b03168d7f47b6f5075904cd0f1f8801ba5355db3939388d00827bdcc8785ee045345e4baf8d604051610b1a91815260200190565b60405180910390a4505050505050505050505050565b600082815260208190526040902060030154829060ff16610b635760405162461bcd60e51b8152600401610149906115c9565b826000610b708233610f50565b50905080610b905760405162461bcd60e51b8152600401610149906117bf565b6001600160a01b038416610be65760405162461bcd60e51b815260206004820181905260248201527f526563697069656e742063616e6e6f74206265207a65726f20616464726573736044820152606401610149565b336001600160a01b03851603610c385760405162461bcd60e51b815260206004820152601760248201527621b0b73737ba103a3930b739b332b9103a379039b2b63360491b6044820152606401610149565b60008581526020819052604081209080610c528833610f50565b9150915081610c965760405162461bcd60e51b815260206004820152601060248201526f21b0b63632b9103737ba1037bbb732b960811b6044820152606401610149565b826002018181548110610cab57610cab61163a565b906000526020600020906002020160010154606414610d1c5760405162461bcd60e51b815260206004820152602760248201527f43616c6c6572206d75737420686f6c64203130302520746f2066756c6c7920746044820152663930b739b332b960c91b6064820152608401610149565b610d2a6002840160006110b2565b6040805180820182526001600160a01b0389811680835260646020808501918252600289810180546001808201835560009283529382209751920290960180546001600160a01b031916919095161784559051920191909155915133918b917fab018aef9fb5b48a1d6354ffac84b07d2319b800aa6c89f77ff891be6c967bdb9190a45050505050505050565b6000818152602081905260409020600301546060908190839060ff16610def5760405162461bcd60e51b8152600401610149906115c9565b60008481526020819052604090206002810154806001600160401b03811115610e1a57610e1a6111da565b604051908082528060200260200182016040528015610e43578160200160208202803683370190505b509450806001600160401b03811115610e5e57610e5e6111da565b604051908082528060200260200182016040528015610e87578160200160208202803683370190505b50935060005b81811015610f4757826002018181548110610eaa57610eaa61163a565b600091825260209091206002909102015486516001600160a01b0390911690879083908110610edb57610edb61163a565b60200260200101906001600160a01b031690816001600160a01b031681525050826002018181548110610f1057610f1061163a565b906000526020600020906002020160010154858281518110610f3457610f3461163a565b6020908102919091010152600101610e8d565b50505050915091565b60008281526020819052604081208190815b6002820154811015610fc157846001600160a01b0316826002018281548110610f8d57610f8d61163a565b60009182526020909120600290910201546001600160a01b031603610fb957600193509150610fcd9050565b600101610f62565b50600060001992509250505b9250929050565b60008281526020819052604081206002810154909190610ff690600190611805565b9050808314611070578160020181815481106110145761101461163a565b90600052602060002090600202018260020184815481106110375761103761163a565b60009182526020909120825460029092020180546001600160a01b0319166001600160a01b039092169190911781556001918201549101555b8160020180548061108357611083611818565b60008281526020812060026000199093019283020180546001600160a01b031916815560010155905550505050565b50805460008255600202906000526020600020908101906110d391906110d6565b50565b5b808211156110fc5780546001600160a01b0319168155600060018201556002016110d7565b5090565b60006020828403121561111257600080fd5b5035919050565b6000815180845260005b8181101561113f57602081850181015186830182015201611123565b506000602082860101526020601f19601f83011685010191505092915050565b87815260e06020820152600061117860e0830189611119565b87604084015282810360608401526111908188611119565b905082810360808401526111a48187611119565b905082810360a08401526111b88186611119565b905082810360c08401526111cc8185611119565b9a9950505050505050505050565b634e487b7160e01b600052604160045260246000fd5b604051601f8201601f191681016001600160401b0381118282101715611218576112186111da565b604052919050565b600082601f83011261123157600080fd5b81356001600160401b0381111561124a5761124a6111da565b61125d601f8201601f19166020016111f0565b81815284602083860101111561127257600080fd5b816020850160208301376000918101602001919091529392505050565b60006001600160401b038211156112a8576112a86111da565b5060051b60200190565b80356001600160a01b03811681146112c957600080fd5b919050565b600082601f8301126112df57600080fd5b81356112f26112ed8261128f565b6111f0565b8082825260208201915060208360051b86010192508583111561131457600080fd5b602085015b838110156113385761132a816112b2565b835260209283019201611319565b5095945050505050565b600082601f83011261135357600080fd5b81356113616112ed8261128f565b8082825260208201915060208360051b86010192508583111561138357600080fd5b602085015b83811015611338578035835260209283019201611388565b600080600080600080600060e0888a0312156113bb57600080fd5b87356001600160401b038111156113d157600080fd5b6113dd8a828b01611220565b97505060208801356001600160401b038111156113f957600080fd5b6114058a828b016112ce565b96505060408801356001600160401b0381111561142157600080fd5b61142d8a828b01611342565b95505060608801356001600160401b0381111561144957600080fd5b6114558a828b01611220565b94505060808801356001600160401b0381111561147157600080fd5b61147d8a828b01611220565b93505060a08801356001600160401b0381111561149957600080fd5b6114a58a828b01611220565b92505060c08801356001600160401b038111156114c157600080fd5b6114cd8a828b01611220565b91505092959891949750929550565b6000806000606084860312156114f157600080fd5b83359250611501602085016112b2565b929592945050506040919091013590565b6000806040838503121561152557600080fd5b82359150611535602084016112b2565b90509250929050565b6040808252835190820181905260009060208501906060840190835b818110156115815783516001600160a01b031683526020938401939092019160010161155a565b50508381036020808601919091528551808352918101925085019060005b818110156115bd57825184526020938401939092019160010161159f565b50919695505050505050565b60208082526017908201527f50726f706572747920646f6573206e6f74206578697374000000000000000000604082015260600190565b600181811c9082168061161457607f821691505b60208210810361163457634e487b7160e01b600052602260045260246000fd5b50919050565b634e487b7160e01b600052603260045260246000fd5b634e487b7160e01b600052601160045260246000fd5b8082018082111561167957611679611650565b92915050565b60006001820161169157611691611650565b5060010190565b601f8211156116e257806000526020600020601f840160051c810160208510156116bf5750805b601f840160051c820191505b818110156116df57600081556001016116cb565b50505b505050565b81516001600160401b03811115611700576117006111da565b6117148161170e8454611600565b84611698565b6020601f82116001811461174857600083156117305750848201515b600019600385901b1c1916600184901b1784556116df565b600084815260208120601f198516915b828110156117785787850151825560209485019460019092019101611758565b50848210156117965786840151600019600387901b60f8161c191681555b50505050600190811b01905550565b6020815260006117b86020830184611119565b9392505050565b60208082526026908201527f43616c6c6572206973206e6f7420616e206f776e6572206f66207468652070726040820152656f706572747960d01b606082015260800190565b8181038181111561167957611679611650565b634e487b7160e01b600052603160045260246000fdfea2646970667358221220a4ec3526c3cd6517de69afd75bd7a564daa3d52db9dc2eafe7ce1644ff3f63dc64736f6c634300081c0033",
  "linkReferences": {},
  "deployedLinkReferences": {}
}