{
  "_format": "hh-sol-artifact-1",
  "contractName": "PropertyRegistry",
  "sourceName": "contracts/PropertyRegistry.sol",
  "abi": [
    {
      "inputs": [],
      "stateMutability": "nonpayable",
      "type": "constructor"
    },
    {
      "inputs": [
        {
          "internalType": "address",
          "name": "sender",
          "type": "address"
        },
        {
          "internalType": "uint256",
          "name": "tokenId",
          "type": "uint256"
        },
        {
          "internalType": "address",
          "name": "owner",
          "type": "address"
        }
      ],
      "name": "ERC721IncorrectOwner",
      "type": "error"
    },
    {
      "inputs": [
        {
          "internalType": "address",
          "name": "operator",
          "type": "address"
        },
        {
          "internalType": "uint256",
          "name": "tokenId",
          "type": "uint256"
        }
      ],
      "name": "ERC721InsufficientApproval",
      "type": "error"
    },
    {
      "inputs": [
        {
          "internalType": "address",
          "name": "approver",
          "type": "address"
        }
      ],
      "name": "ERC721InvalidApprover",
      "type": "error"
    },
    {
      "inputs": [
        {
          "internalType": "address",
          "name": "operator",
          "type": "address"
        }
      ],
      "name": "ERC721InvalidOperator",
      "type": "error"
    },
    {
      "inputs": [
        {
          "internalType": "address",
          "name": "owner",
          "type": "address"
        }
      ],
      "name": "ERC721InvalidOwner",
      "type": "error"
    },
    {
      "inputs": [
        {
          "internalType": "address",
          "name": "receiver",
          "type": "address"
        }
      ],
      "name": "ERC721InvalidReceiver",
      "type": "error"
    },
    {
      "inputs": [
        {
          "internalType": "address",
          "name": "sender",
          "type": "address"
        }
      ],
      "name": "ERC721InvalidSender",
      "type": "error"
    },
    {
      "inputs": [
        {
          "internalType": "uint256",
          "name": "tokenId",
          "type": "uint256"
        }
      ],
      "name": "ERC721NonexistentToken",
      "type": "error"
    },
    {
      "inputs": [
        {
          "internalType": "address",
          "name": "owner",
          "type": "address"
        }
      ],
      "name": "OwnableInvalidOwner",
      "type": "error"
    },
    {
      "inputs": [
        {
          "internalType": "address",
          "name": "account",
          "type": "address"
        }
      ],
      "name": "OwnableUnauthorizedAccount",
      "type": "error"
    },
    {
      "anonymous": false,
      "inputs": [
        {
          "indexed": true,
          "internalType": "address",
          "name": "owner",
          "type": "address"
        },
        {
          "indexed": true,
          "internalType": "address",
          "name": "approved",
          "type": "address"
        },
        {
          "indexed": true,
          "internalType": "uint256",
          "name": "tokenId",
          "type": "uint256"
        }
      ],
      "name": "Approval",
      "type": "event"
    },
    {
      "anonymous": false,
      "inputs": [
        {
          "indexed": true,
          "internalType": "address",
          "name": "owner",
          "type": "address"
        },
        {
          "indexed": true,
          "internalType": "address",
          "name": "operator",
          "type": "address"
        },
        {
          "indexed": false,
          "internalType": "bool",
          "name": "approved",
          "type": "bool"
        }
      ],
      "name": "ApprovalForAll",
      "type": "event"
    },
    {
      "anonymous": false,
      "inputs": [
        {
          "indexed": true,
          "internalType": "address",
          "name": "previousOwner",
          "type": "address"
        },
        {
          "indexed": true,
          "internalType": "address",
          "name": "newOwner",
          "type": "address"
        }
      ],
      "name": "OwnershipTransferred",
      "type": "event"
    },
    {
      "anonymous": false,
      "inputs": [
        {
          "indexed": true,
          "internalType": "uint256",
          "name": "propertyId",
          "type": "uint256"
        },
        {
          "indexed": false,
          "internalType": "string",
          "name": "name",
          "type": "string"
        },
        {
          "indexed": true,
          "internalType": "address",
          "name": "owner",
          "type": "address"
        }
      ],
      "name": "PropertyRegistered",
      "type": "event"
    },
    {
      "anonymous": false,
      "inputs": [
        {
          "indexed": true,
          "internalType": "address",
          "name": "from",
          "type": "address"
        },
        {
          "indexed": true,
          "internalType": "address",
          "name": "to",
          "type": "address"
        },
        {
          "indexed": true,
          "internalType": "uint256",
          "name": "tokenId",
          "type": "uint256"
        }
      ],
      "name": "Transfer",
      "type": "event"
    },
    {
      "inputs": [
        {
          "internalType": "address",
          "name": "to",
          "type": "address"
        },
        {
          "internalType": "uint256",
          "name": "tokenId",
          "type": "uint256"
        }
      ],
      "name": "approve",
      "outputs": [],
      "stateMutability": "nonpayable",
      "type": "function"
    },
    {
      "inputs": [
        {
          "internalType": "address",
          "name": "owner",
          "type": "address"
        }
      ],
      "name": "balanceOf",
      "outputs": [
        {
          "internalType": "uint256",
          "name": "",
          "type": "uint256"
        }
      ],
      "stateMutability": "view",
      "type": "function"
    },
    {
      "inputs": [
        {
          "internalType": "uint256",
          "name": "tokenId",
          "type": "uint256"
        }
      ],
      "name": "getApproved",
      "outputs": [
        {
          "internalType": "address",
          "name": "",
          "type": "address"
        }
      ],
      "stateMutability": "view",
      "type": "function"
    },
    {
      "inputs": [
        {
          "internalType": "uint256",
          "name": "_propertyId",
          "type": "uint256"
        }
      ],
      "name": "getProperty",
      "outputs": [
        {
          "internalType": "uint256",
          "name": "id",
          "type": "uint256"
        },
        {
          "internalType": "string",
          "name": "name",
          "type": "string"
        },
        {
          "internalType": "string",
          "name": "partnershipAgreementUrl",
          "type": "string"
        },
        {
          "internalType": "string",
          "name": "maintenanceAgreementUrl",
          "type": "string"
        },
        {
          "internalType": "string",
          "name": "rentAgreementUrl",
          "type": "string"
        },
        {
          "internalType": "string",
          "name": "imageUrl",
          "type": "string"
        }
      ],
      "stateMutability": "view",
      "type": "function"
    },
    {
      "inputs": [
        {
          "internalType": "address",
          "name": "owner",
          "type": "address"
        },
        {
          "internalType": "address",
          "name": "operator",
          "type": "address"
        }
      ],
      "name": "isApprovedForAll",
      "outputs": [
        {
          "internalType": "bool",
          "name": "",
          "type": "bool"
        }
      ],
      "stateMutability": "view",
      "type": "function"
    },
    {
      "inputs": [],
      "name": "name",
      "outputs": [
        {
          "internalType": "string",
          "name": "",
          "type": "string"
        }
      ],
      "stateMutability": "view",
      "type": "function"
    },
    {
      "inputs": [],
      "name": "owner",
      "outputs": [
        {
          "internalType": "address",
          "name": "",
          "type": "address"
        }
      ],
      "stateMutability": "view",
      "type": "function"
    },
    {
      "inputs": [
        {
          "internalType": "uint256",
          "name": "tokenId",
          "type": "uint256"
        }
      ],
      "name": "ownerOf",
      "outputs": [
        {
          "internalType": "address",
          "name": "",
          "type": "address"
        }
      ],
      "stateMutability": "view",
      "type": "function"
    },
    {
      "inputs": [],
      "name": "propertyCount",
      "outputs": [
        {
          "internalType": "uint256",
          "name": "",
          "type": "uint256"
        }
      ],
      "stateMutability": "view",
      "type": "function"
    },
    {
      "inputs": [
        {
          "internalType": "string",
          "name": "_name",
          "type": "string"
        },
        {
          "internalType": "address",
          "name": "_owner",
          "type": "address"
        },
        {
          "internalType": "string",
          "name": "_partnershipAgreementUrl",
          "type": "string"
        },
        {
          "internalType": "string",
          "name": "_maintenanceAgreementUrl",
          "type": "string"
        },
        {
          "internalType": "string",
          "name": "_rentAgreementUrl",
          "type": "string"
        },
        {
          "internalType": "string",
          "name": "_imageUrl",
          "type": "string"
        }
      ],
      "name": "registerProperty",
      "outputs": [],
      "stateMutability": "nonpayable",
      "type": "function"
    },
    {
      "inputs": [],
      "name": "renounceOwnership",
      "outputs": [],
      "stateMutability": "nonpayable",
      "type": "function"
    },
    {
      "inputs": [
        {
          "internalType": "address",
          "name": "from",
          "type": "address"
        },
        {
          "internalType": "address",
          "name": "to",
          "type": "address"
        },
        {
          "internalType": "uint256",
          "name": "tokenId",
          "type": "uint256"
        }
      ],
      "name": "safeTransferFrom",
      "outputs": [],
      "stateMutability": "nonpayable",
      "type": "function"
    },
    {
      "inputs": [
        {
          "internalType": "address",
          "name": "from",
          "type": "address"
        },
        {
          "internalType": "address",
          "name": "to",
          "type": "address"
        },
        {
          "internalType": "uint256",
          "name": "tokenId",
          "type": "uint256"
        },
        {
          "internalType": "bytes",
          "name": "data",
          "type": "bytes"
        }
      ],
      "name": "safeTransferFrom",
      "outputs": [],
      "stateMutability": "nonpayable",
      "type": "function"
    },
    {
      "inputs": [
        {
          "internalType": "address",
          "name": "operator",
          "type": "address"
        },
        {
          "internalType": "bool",
          "name": "approved",
          "type": "bool"
        }
      ],
      "name": "setApprovalForAll",
      "outputs": [],
      "stateMutability": "nonpayable",
      "type": "function"
    },
    {
      "inputs": [
        {
          "internalType": "bytes4",
          "name": "interfaceId",
          "type": "bytes4"
        }
      ],
      "name": "supportsInterface",
      "outputs": [
        {
          "internalType": "bool",
          "name": "",
          "type": "bool"
        }
      ],
      "stateMutability": "view",
      "type": "function"
    },
    {
      "inputs": [],
      "name": "symbol",
      "outputs": [
        {
          "internalType": "string",
          "name": "",
          "type": "string"
        }
      ],
      "stateMutability": "view",
      "type": "function"
    },
    {
      "inputs": [
        {
          "internalType": "uint256",
          "name": "tokenId",
          "type": "uint256"
        }
      ],
      "name": "tokenURI",
      "outputs": [
        {
          "internalType": "string",
          "name": "",
          "type": "string"
        }
      ],
      "stateMutability": "view",
      "type": "function"
    },
    {
      "inputs": [
        {
          "internalType": "address",
          "name": "from",
          "type": "address"
        },
        {
          "internalType": "address",
          "name": "to",
          "type": "address"
        },
        {
          "internalType": "uint256",
          "name": "tokenId",
          "type": "uint256"
        }
      ],
      "name": "transferFrom",
      "outputs": [],
      "stateMutability": "nonpayable",
      "type": "function"
    },
    {
      "inputs": [
        {
          "internalType": "address",
          "name": "newOwner",
          "type": "address"
        }
      ],
      "name": "transferOwnership",
      "outputs": [],
      "stateMutability": "nonpayable",
      "type": "function"
    }
  ],
  "bytecode": "0x608060405234801561001057600080fd5b50336040518060400160405280600d81526020016c1499585b115cdd185d19539195609a1b815250604051806040016040528060048152602001631491539560e21b815250816000908161006491906101a2565b50600161007182826101a2565b5050506001600160a01b0381166100a257604051631e4fbdf760e01b81526000600482015260240160405180910390fd5b6100ab816100b1565b50610260565b600680546001600160a01b038381166001600160a01b0319831681179093556040519116919082907f8be0079c531659141344cd1fd0a4f28419497f9722a3daafe3b4186f6b6457e090600090a35050565b634e487b7160e01b600052604160045260246000fd5b600181811c9082168061012d57607f821691505b60208210810361014d57634e487b7160e01b600052602260045260246000fd5b50919050565b601f82111561019d57806000526020600020601f840160051c8101602085101561017a5750805b601f840160051c820191505b8181101561019a5760008155600101610186565b50505b505050565b81516001600160401b038111156101bb576101bb610103565b6101cf816101c98454610119565b84610153565b6020601f82116001811461020357600083156101eb5750848201515b600019600385901b1c1916600184901b17845561019a565b600084815260208120601f198516915b828110156102335787850151825560209485019460019092019101610213565b50848210156102515786840151600019600387901b60f8161c191681555b50505050600190811b01905550565b6118c48061026f6000396000f3fe608060405234801561001057600080fd5b50600436106101215760003560e01c8063715018a6116100ad578063c361a33511610071578063c361a33514610269578063c87b56dd14610271578063e57ea49b14610284578063e985e9c514610297578063f2fde38b146102aa57600080fd5b8063715018a6146102225780638da5cb5b1461022a57806395d89b411461023b578063a22cb46514610243578063b88d4fde1461025657600080fd5b806323b872dd116100f457806323b872dd146101a357806332665ffb146101b657806342842e0e146101db5780636352211e146101ee57806370a082311461020157600080fd5b806301ffc9a71461012657806306fdde031461014e578063081812fc14610163578063095ea7b31461018e575b600080fd5b61013961013436600461125d565b6102bd565b60405190151581526020015b60405180910390f35b61015661030f565b60405161014591906112ca565b6101766101713660046112dd565b6103a1565b6040516001600160a01b039091168152602001610145565b6101a161019c366004611312565b6103ca565b005b6101a16101b136600461133c565b6103d9565b6101c96101c43660046112dd565b610469565b60405161014596959493929190611379565b6101a16101e936600461133c565b6107cc565b6101766101fc3660046112dd565b6107ec565b61021461020f3660046113ed565b6107f7565b604051908152602001610145565b6101a161083f565b6006546001600160a01b0316610176565b610156610853565b6101a1610251366004611408565b610862565b6101a16102643660046114d4565b61086d565b600754610214565b61015661027f3660046112dd565b610885565b6101a1610292366004611570565b6108fa565b6101396102a536600461166b565b610ab3565b6101a16102b83660046113ed565b610ae1565b60006001600160e01b031982166380ac58cd60e01b14806102ee57506001600160e01b03198216635b5e139f60e01b145b8061030957506301ffc9a760e01b6001600160e01b03198316145b92915050565b60606000805461031e9061169e565b80601f016020809104026020016040519081016040528092919081815260200182805461034a9061169e565b80156103975780601f1061036c57610100808354040283529160200191610397565b820191906000526020600020905b81548152906001019060200180831161037a57829003601f168201915b5050505050905090565b60006103ac82610b1f565b506000828152600460205260409020546001600160a01b0316610309565b6103d5828233610b58565b5050565b6001600160a01b03821661040857604051633250574960e11b8152600060048201526024015b60405180910390fd5b6000610415838333610b65565b9050836001600160a01b0316816001600160a01b031614610463576040516364283d7b60e01b81526001600160a01b03808616600483015260248201849052821660448201526064016103ff565b50505050565b60006060808080808561047b886107ec565b6001600160a01b0316036104d15760405162461bcd60e51b815260206004820152601760248201527f50726f706572747920646f6573206e6f7420657869737400000000000000000060448201526064016103ff565b60008781526008602052604090208054600182018054600284019060038501906004860190600587019085906105069061169e565b80601f01602080910402602001604051908101604052809291908181526020018280546105329061169e565b801561057f5780601f106105545761010080835404028352916020019161057f565b820191906000526020600020905b81548152906001019060200180831161056257829003601f168201915b505050505094508380546105929061169e565b80601f01602080910402602001604051908101604052809291908181526020018280546105be9061169e565b801561060b5780601f106105e05761010080835404028352916020019161060b565b820191906000526020600020905b8154815290600101906020018083116105ee57829003601f168201915b5050505050935082805461061e9061169e565b80601f016020809104026020016040519081016040528092919081815260200182805461064a9061169e565b80156106975780601f1061066c57610100808354040283529160200191610697565b820191906000526020600020905b81548152906001019060200180831161067a57829003601f168201915b505050505092508180546106aa9061169e565b80601f01602080910402602001604051908101604052809291908181526020018280546106d69061169e565b80156107235780601f106106f857610100808354040283529160200191610723565b820191906000526020600020905b81548152906001019060200180831161070657829003601f168201915b505050505091508080546107369061169e565b80601f01602080910402602001604051908101604052809291908181526020018280546107629061169e565b80156107af5780601f10610784576101008083540402835291602001916107af565b820191906000526020600020905b81548152906001019060200180831161079257829003601f168201915b505050505090509650965096509650965096505091939550919395565b6107e78383836040518060200160405280600081525061086d565b505050565b600061030982610b1f565b60006001600160a01b038216610823576040516322718ad960e21b8152600060048201526024016103ff565b506001600160a01b031660009081526003602052604090205490565b610847610c5e565b6108516000610c8b565b565b60606001805461031e9061169e565b6103d5338383610cdd565b6108788484846103d9565b6104633385858585610d7c565b606061089082610b1f565b5060006108a860408051602081019091526000815290565b905060008151116108c857604051806020016040528060008152506108f3565b806108d284610ea7565b6040516020016108e39291906116d8565b6040516020818303038152906040525b9392505050565b610902610c5e565b60008651116109435760405162461bcd60e51b815260206004820152600d60248201526c13985b59481c995c5d5a5c9959609a1b60448201526064016103ff565b6001600160a01b0385166109995760405162461bcd60e51b815260206004820152601c60248201527f4f776e65722063616e6e6f74206265207a65726f20616464726573730000000060448201526064016103ff565b600780549060006109a983611707565b90915550506007546109bb8682610f3a565b6040805160c08101825282815260208082018a8152828401899052606083018890526080830187905260a08301869052600085815260089092529290208151815591519091906001820190610a109082611775565b5060408201516002820190610a259082611775565b5060608201516003820190610a3a9082611775565b5060808201516004820190610a4f9082611775565b5060a08201516005820190610a649082611775565b50905050856001600160a01b0316817f48f60036379fd7c4097915cf4b2dcab366c2d3881ae8b3cb2c19d6f7e35719b989604051610aa291906112ca565b60405180910390a350505050505050565b6001600160a01b03918216600090815260056020908152604080832093909416825291909152205460ff1690565b610ae9610c5e565b6001600160a01b038116610b1357604051631e4fbdf760e01b8152600060048201526024016103ff565b610b1c81610c8b565b50565b6000818152600260205260408120546001600160a01b03168061030957604051637e27328960e01b8152600481018490526024016103ff565b6107e78383836001610f9f565b6000828152600260205260408120546001600160a01b0390811690831615610b9257610b928184866110a5565b6001600160a01b03811615610bd057610baf600085600080610f9f565b6001600160a01b038116600090815260036020526040902080546000190190555b6001600160a01b03851615610bff576001600160a01b0385166000908152600360205260409020805460010190555b60008481526002602052604080822080546001600160a01b0319166001600160a01b0389811691821790925591518793918516917fddf252ad1be2c89b69c2b068fc378daa952ba7f163c4a11628f55a4df523b3ef91a4949350505050565b6006546001600160a01b031633146108515760405163118cdaa760e01b81523360048201526024016103ff565b600680546001600160a01b038381166001600160a01b0319831681179093556040519116919082907f8be0079c531659141344cd1fd0a4f28419497f9722a3daafe3b4186f6b6457e090600090a35050565b6001600160a01b038216610d0f57604051630b61174360e31b81526001600160a01b03831660048201526024016103ff565b6001600160a01b03838116600081815260056020908152604080832094871680845294825291829020805460ff191686151590811790915591519182527f17307eab39ab6107e8899845ad3d59bd9653f200f220920489ca2b5937696c31910160405180910390a3505050565b6001600160a01b0383163b15610ea057604051630a85bd0160e11b81526001600160a01b0384169063150b7a0290610dbe908890889087908790600401611834565b6020604051808303816000875af1925050508015610df9575060408051601f3d908101601f19168201909252610df691810190611871565b60015b610e62573d808015610e27576040519150601f19603f3d011682016040523d82523d6000602084013e610e2c565b606091505b508051600003610e5a57604051633250574960e11b81526001600160a01b03851660048201526024016103ff565b805160208201fd5b6001600160e01b03198116630a85bd0160e11b14610e9e57604051633250574960e11b81526001600160a01b03851660048201526024016103ff565b505b5050505050565b60606000610eb483611109565b600101905060008167ffffffffffffffff811115610ed457610ed4611444565b6040519080825280601f01601f191660200182016040528015610efe576020820181803683370190505b5090508181016020015b600019016f181899199a1a9b1b9c1cb0b131b232b360811b600a86061a8153600a8504945084610f0857509392505050565b6001600160a01b038216610f6457604051633250574960e11b8152600060048201526024016103ff565b6000610f7283836000610b65565b90506001600160a01b038116156107e7576040516339e3563760e11b8152600060048201526024016103ff565b8080610fb357506001600160a01b03821615155b15611075576000610fc384610b1f565b90506001600160a01b03831615801590610fef5750826001600160a01b0316816001600160a01b031614155b801561100257506110008184610ab3565b155b1561102b5760405163a9fbf51f60e01b81526001600160a01b03841660048201526024016103ff565b81156110735783856001600160a01b0316826001600160a01b03167f8c5be1e5ebec7d5bd14f71427d1e84f3dd0314c0f7b2291e5b200ac8c7c3b92560405160405180910390a45b505b5050600090815260046020526040902080546001600160a01b0319166001600160a01b0392909216919091179055565b6110b08383836111e1565b6107e7576001600160a01b0383166110de57604051637e27328960e01b8152600481018290526024016103ff565b60405163177e802f60e01b81526001600160a01b0383166004820152602481018290526044016103ff565b60008072184f03e93ff9f4daa797ed6e38ed64bf6a1f0160401b83106111485772184f03e93ff9f4daa797ed6e38ed64bf6a1f0160401b830492506040015b6d04ee2d6d415b85acef81000000008310611174576d04ee2d6d415b85acef8100000000830492506020015b662386f26fc10000831061119257662386f26fc10000830492506010015b6305f5e10083106111aa576305f5e100830492506008015b61271083106111be57612710830492506004015b606483106111d0576064830492506002015b600a83106103095760010192915050565b60006001600160a01b0383161580159061123f5750826001600160a01b0316846001600160a01b0316148061121b575061121b8484610ab3565b8061123f57506000828152600460205260409020546001600160a01b038481169116145b949350505050565b6001600160e01b031981168114610b1c57600080fd5b60006020828403121561126f57600080fd5b81356108f381611247565b60005b8381101561129557818101518382015260200161127d565b50506000910152565b600081518084526112b681602086016020860161127a565b601f01601f19169290920160200192915050565b6020815260006108f3602083018461129e565b6000602082840312156112ef57600080fd5b5035919050565b80356001600160a01b038116811461130d57600080fd5b919050565b6000806040838503121561132557600080fd5b61132e836112f6565b946020939093013593505050565b60008060006060848603121561135157600080fd5b61135a846112f6565b9250611368602085016112f6565b929592945050506040919091013590565b86815260c06020820152600061139260c083018861129e565b82810360408401526113a4818861129e565b905082810360608401526113b8818761129e565b905082810360808401526113cc818661129e565b905082810360a08401526113e0818561129e565b9998505050505050505050565b6000602082840312156113ff57600080fd5b6108f3826112f6565b6000806040838503121561141b57600080fd5b611424836112f6565b91506020830135801515811461143957600080fd5b809150509250929050565b634e487b7160e01b600052604160045260246000fd5b60008067ffffffffffffffff84111561147557611475611444565b50604051601f19601f85018116603f0116810181811067ffffffffffffffff821117156114a4576114a4611444565b6040528381529050808284018510156114bc57600080fd5b83836020830137600060208583010152509392505050565b600080600080608085870312156114ea57600080fd5b6114f3856112f6565b9350611501602086016112f6565b925060408501359150606085013567ffffffffffffffff81111561152457600080fd5b8501601f8101871361153557600080fd5b6115448782356020840161145a565b91505092959194509250565b600082601f83011261156157600080fd5b6108f38383356020850161145a565b60008060008060008060c0878903121561158957600080fd5b863567ffffffffffffffff8111156115a057600080fd5b6115ac89828a01611550565b9650506115bb602088016112f6565b9450604087013567ffffffffffffffff8111156115d757600080fd5b6115e389828a01611550565b945050606087013567ffffffffffffffff81111561160057600080fd5b61160c89828a01611550565b935050608087013567ffffffffffffffff81111561162957600080fd5b61163589828a01611550565b92505060a087013567ffffffffffffffff81111561165257600080fd5b61165e89828a01611550565b9150509295509295509295565b6000806040838503121561167e57600080fd5b611687836112f6565b9150611695602084016112f6565b90509250929050565b600181811c908216806116b257607f821691505b6020821081036116d257634e487b7160e01b600052602260045260246000fd5b50919050565b600083516116ea81846020880161127a565b8351908301906116fe81836020880161127a565b01949350505050565b60006001820161172757634e487b7160e01b600052601160045260246000fd5b5060010190565b601f8211156107e757806000526020600020601f840160051c810160208510156117555750805b601f840160051c820191505b81811015610ea05760008155600101611761565b815167ffffffffffffffff81111561178f5761178f611444565b6117a38161179d845461169e565b8461172e565b6020601f8211600181146117d757600083156117bf5750848201515b600019600385901b1c1916600184901b178455610ea0565b600084815260208120601f198516915b8281101561180757878501518255602094850194600190920191016117e7565b50848210156118255786840151600019600387901b60f8161c191681555b50505050600190811b01905550565b6001600160a01b03858116825284166020820152604081018390526080606082018190526000906118679083018461129e565b9695505050505050565b60006020828403121561188357600080fd5b81516108f38161124756fea26469706673582212204fa175d7c05123de32699c4c75bfe9e57bc5d99d87a94a1208f9617d38f93be264736f6c634300081c0033",
  "linkReferences": {},
  "deployedLinkReferences": {}
}