{
  "_format": "hh-sol-artifact-1",
  "contractName": "PropertyRegistry",
  "sourceName": "contracts/PropertyRegistry.sol",
  "abi": [
    {
      "inputs": [],
      "stateMutability": "nonpayable",
      "type": "constructor"
    },
    {
      "inputs": [
        {
          "internalType": "address",
          "name": "sender",
          "type": "address"
        },
        {
          "internalType": "uint256",
          "name": "tokenId",
          "type": "uint256"
        },
        {
          "internalType": "address",
          "name": "owner",
          "type": "address"
        }
      ],
      "name": "ERC721IncorrectOwner",
      "type": "error"
    },
    {
      "inputs": [
        {
          "internalType": "address",
          "name": "operator",
          "type": "address"
        },
        {
          "internalType": "uint256",
          "name": "tokenId",
          "type": "uint256"
        }
      ],
      "name": "ERC721InsufficientApproval",
      "type": "error"
    },
    {
      "inputs": [
        {
          "internalType": "address",
          "name": "approver",
          "type": "address"
        }
      ],
      "name": "ERC721InvalidApprover",
      "type": "error"
    },
    {
      "inputs": [
        {
          "internalType": "address",
          "name": "operator",
          "type": "address"
        }
      ],
      "name": "ERC721InvalidOperator",
      "type": "error"
    },
    {
      "inputs": [
        {
          "internalType": "address",
          "name": "owner",
          "type": "address"
        }
      ],
      "name": "ERC721InvalidOwner",
      "type": "error"
    },
    {
      "inputs": [
        {
          "internalType": "address",
          "name": "receiver",
          "type": "address"
        }
      ],
      "name": "ERC721InvalidReceiver",
      "type": "error"
    },
    {
      "inputs": [
        {
          "internalType": "address",
          "name": "sender",
          "type": "address"
        }
      ],
      "name": "ERC721InvalidSender",
      "type": "error"
    },
    {
      "inputs": [
        {
          "internalType": "uint256",
          "name": "tokenId",
          "type": "uint256"
        }
      ],
      "name": "ERC721NonexistentToken",
      "type": "error"
    },
    {
      "inputs": [
        {
          "internalType": "address",
          "name": "owner",
          "type": "address"
        }
      ],
      "name": "OwnableInvalidOwner",
      "type": "error"
    },
    {
      "inputs": [
        {
          "internalType": "address",
          "name": "account",
          "type": "address"
        }
      ],
      "name": "OwnableUnauthorizedAccount",
      "type": "error"
    },
    {
      "anonymous": false,
      "inputs": [
        {
          "indexed": true,
          "internalType": "address",
          "name": "owner",
          "type": "address"
        },
        {
          "indexed": true,
          "internalType": "address",
          "name": "approved",
          "type": "address"
        },
        {
          "indexed": true,
          "internalType": "uint256",
          "name": "tokenId",
          "type": "uint256"
        }
      ],
      "name": "Approval",
      "type": "event"
    },
    {
      "anonymous": false,
      "inputs": [
        {
          "indexed": true,
          "internalType": "address",
          "name": "owner",
          "type": "address"
        },
        {
          "indexed": true,
          "internalType": "address",
          "name": "operator",
          "type": "address"
        },
        {
          "indexed": false,
          "internalType": "bool",
          "name": "approved",
          "type": "bool"
        }
      ],
      "name": "ApprovalForAll",
      "type": "event"
    },
    {
      "anonymous": false,
      "inputs": [
        {
          "indexed": true,
          "internalType": "uint256",
          "name": "listingId",
          "type": "uint256"
        },
        {
          "indexed": true,
          "internalType": "uint256",
          "name": "propertyId",
          "type": "uint256"
        },
        {
          "indexed": true,
          "internalType": "address",
          "name": "seller",
          "type": "address"
        },
        {
          "indexed": false,
          "internalType": "address",
          "name": "fractionalNFTAddress",
          "type": "address"
        },
        {
          "indexed": false,
          "internalType": "uint256",
          "name": "amount",
          "type": "uint256"
        },
        {
          "indexed": false,
          "internalType": "uint256",
          "name": "pricePerShare",
          "type": "uint256"
        }
      ],
      "name": "NFTListedForSale",
      "type": "event"
    },
    {
      "anonymous": false,
      "inputs": [
        {
          "indexed": true,
          "internalType": "uint256",
          "name": "listingId",
          "type": "uint256"
        }
      ],
      "name": "NFTListingCancelled",
      "type": "event"
    },
    {
      "anonymous": false,
      "inputs": [
        {
          "indexed": true,
          "internalType": "uint256",
          "name": "listingId",
          "type": "uint256"
        },
        {
          "indexed": true,
          "internalType": "uint256",
          "name": "propertyId",
          "type": "uint256"
        },
        {
          "indexed": true,
          "internalType": "address",
          "name": "buyer",
          "type": "address"
        },
        {
          "indexed": false,
          "internalType": "uint256",
          "name": "amount",
          "type": "uint256"
        },
        {
          "indexed": false,
          "internalType": "uint256",
          "name": "totalPrice",
          "type": "uint256"
        }
      ],
      "name": "NFTPurchased",
      "type": "event"
    },
    {
      "anonymous": false,
      "inputs": [
        {
          "indexed": true,
          "internalType": "address",
          "name": "previousOwner",
          "type": "address"
        },
        {
          "indexed": true,
          "internalType": "address",
          "name": "newOwner",
          "type": "address"
        }
      ],
      "name": "OwnershipTransferred",
      "type": "event"
    },
    {
      "anonymous": false,
      "inputs": [
        {
          "indexed": true,
          "internalType": "uint256",
          "name": "propertyId",
          "type": "uint256"
        },
        {
          "indexed": false,
          "internalType": "address",
          "name": "fractionalContract",
          "type": "address"
        }
      ],
      "name": "PropertyFractionalized",
      "type": "event"
    },
    {
      "anonymous": false,
      "inputs": [
        {
          "indexed": true,
          "internalType": "uint256",
          "name": "propertyId",
          "type": "uint256"
        },
        {
          "indexed": false,
          "internalType": "string",
          "name": "name",
          "type": "string"
        },
        {
          "indexed": true,
          "internalType": "address",
          "name": "owner",
          "type": "address"
        }
      ],
      "name": "PropertyRegistered",
      "type": "event"
    },
    {
      "anonymous": false,
      "inputs": [
        {
          "indexed": true,
          "internalType": "uint256",
          "name": "requestId",
          "type": "uint256"
        },
        {
          "indexed": true,
          "internalType": "uint256",
          "name": "propertyId",
          "type": "uint256"
        }
      ],
      "name": "PropertyRequestApproved",
      "type": "event"
    },
    {
      "anonymous": false,
      "inputs": [
        {
          "indexed": true,
          "internalType": "uint256",
          "name": "requestId",
          "type": "uint256"
        },
        {
          "indexed": false,
          "internalType": "string",
          "name": "name",
          "type": "string"
        },
        {
          "indexed": true,
          "internalType": "address",
          "name": "requester",
          "type": "address"
        }
      ],
      "name": "PropertyRequestCreated",
      "type": "event"
    },
    {
      "anonymous": false,
      "inputs": [
        {
          "indexed": true,
          "internalType": "uint256",
          "name": "requestId",
          "type": "uint256"
        }
      ],
      "name": "PropertyRequestRejected",
      "type": "event"
    },
    {
      "anonymous": false,
      "inputs": [
        {
          "indexed": true,
          "internalType": "address",
          "name": "from",
          "type": "address"
        },
        {
          "indexed": true,
          "internalType": "address",
          "name": "to",
          "type": "address"
        },
        {
          "indexed": true,
          "internalType": "uint256",
          "name": "tokenId",
          "type": "uint256"
        }
      ],
      "name": "Transfer",
      "type": "event"
    },
    {
      "inputs": [
        {
          "internalType": "address",
          "name": "to",
          "type": "address"
        },
        {
          "internalType": "uint256",
          "name": "tokenId",
          "type": "uint256"
        }
      ],
      "name": "approve",
      "outputs": [],
      "stateMutability": "nonpayable",
      "type": "function"
    },
    {
      "inputs": [
        {
          "internalType": "uint256",
          "name": "_requestId",
          "type": "uint256"
        }
      ],
      "name": "approveRequest",
      "outputs": [],
      "stateMutability": "nonpayable",
      "type": "function"
    },
    {
      "inputs": [
        {
          "internalType": "address",
          "name": "owner",
          "type": "address"
        }
      ],
      "name": "balanceOf",
      "outputs": [
        {
          "internalType": "uint256",
          "name": "",
          "type": "uint256"
        }
      ],
      "stateMutability": "view",
      "type": "function"
    },
    {
      "inputs": [
        {
          "internalType": "uint256",
          "name": "_listingId",
          "type": "uint256"
        },
        {
          "internalType": "uint256",
          "name": "_amountToBuy",
          "type": "uint256"
        }
      ],
      "name": "buyListedFractionalNFT",
      "outputs": [],
      "stateMutability": "payable",
      "type": "function"
    },
    {
      "inputs": [
        {
          "internalType": "uint256",
          "name": "_listingId",
          "type": "uint256"
        }
      ],
      "name": "cancelListing",
      "outputs": [],
      "stateMutability": "nonpayable",
      "type": "function"
    },
    {
      "inputs": [
        {
          "internalType": "string",
          "name": "_name",
          "type": "string"
        },
        {
          "internalType": "string",
          "name": "_partnershipAgreementUrl",
          "type": "string"
        },
        {
          "internalType": "string",
          "name": "_maintenanceAgreementUrl",
          "type": "string"
        },
        {
          "internalType": "string",
          "name": "_rentAgreementUrl",
          "type": "string"
        },
        {
          "internalType": "string",
          "name": "_imageUrl",
          "type": "string"
        },
        {
          "internalType": "address[]",
          "name": "_ownerAddresses",
          "type": "address[]"
        },
        {
          "internalType": "uint256[]",
          "name": "_percentages",
          "type": "uint256[]"
        }
      ],
      "name": "createPropertyRequest",
      "outputs": [],
      "stateMutability": "nonpayable",
      "type": "function"
    },
    {
      "inputs": [],
      "name": "fractionalizer",
      "outputs": [
        {
          "internalType": "contract Fractionalizer",
          "name": "",
          "type": "address"
        }
      ],
      "stateMutability": "view",
      "type": "function"
    },
    {
      "inputs": [],
      "name": "getAllActiveListings",
      "outputs": [
        {
          "components": [
            {
              "internalType": "uint256",
              "name": "listingId",
              "type": "uint256"
            },
            {
              "internalType": "uint256",
              "name": "propertyId",
              "type": "uint256"
            },
            {
              "internalType": "address",
              "name": "fractionalNFTAddress",
              "type": "address"
            },
            {
              "internalType": "address",
              "name": "seller",
              "type": "address"
            },
            {
              "internalType": "uint256",
              "name": "amount",
              "type": "uint256"
            },
            {
              "internalType": "uint256",
              "name": "pricePerShare",
              "type": "uint256"
            },
            {
              "internalType": "enum PropertyRegistry.ListingStatus",
              "name": "status",
              "type": "uint8"
            }
          ],
          "internalType": "struct PropertyRegistry.Listing[]",
          "name": "",
          "type": "tuple[]"
        }
      ],
      "stateMutability": "view",
      "type": "function"
    },
    {
      "inputs": [
        {
          "internalType": "uint256",
          "name": "tokenId",
          "type": "uint256"
        }
      ],
      "name": "getApproved",
      "outputs": [
        {
          "internalType": "address",
          "name": "",
          "type": "address"
        }
      ],
      "stateMutability": "view",
      "type": "function"
    },
    {
      "inputs": [
        {
          "internalType": "uint256",
          "name": "_listingId",
          "type": "uint256"
        }
      ],
      "name": "getListing",
      "outputs": [
        {
          "components": [
            {
              "internalType": "uint256",
              "name": "listingId",
              "type": "uint256"
            },
            {
              "internalType": "uint256",
              "name": "propertyId",
              "type": "uint256"
            },
            {
              "internalType": "address",
              "name": "fractionalNFTAddress",
              "type": "address"
            },
            {
              "internalType": "address",
              "name": "seller",
              "type": "address"
            },
            {
              "internalType": "uint256",
              "name": "amount",
              "type": "uint256"
            },
            {
              "internalType": "uint256",
              "name": "pricePerShare",
              "type": "uint256"
            },
            {
              "internalType": "enum PropertyRegistry.ListingStatus",
              "name": "status",
              "type": "uint8"
            }
          ],
          "internalType": "struct PropertyRegistry.Listing",
          "name": "",
          "type": "tuple"
        }
      ],
      "stateMutability": "view",
      "type": "function"
    },
    {
      "inputs": [
        {
          "internalType": "uint256",
          "name": "_id",
          "type": "uint256"
        }
      ],
      "name": "getProperty",
      "outputs": [
        {
          "components": [
            {
              "internalType": "uint256",
              "name": "id",
              "type": "uint256"
            },
            {
              "internalType": "string",
              "name": "name",
              "type": "string"
            },
            {
              "internalType": "string",
              "name": "partnershipAgreementUrl",
              "type": "string"
            },
            {
              "internalType": "string",
              "name": "maintenanceAgreementUrl",
              "type": "string"
            },
            {
              "internalType": "string",
              "name": "rentAgreementUrl",
              "type": "string"
            },
            {
              "internalType": "string",
              "name": "imageUrl",
              "type": "string"
            },
            {
              "internalType": "bool",
              "name": "isFractionalized",
              "type": "bool"
            }
          ],
          "internalType": "struct PropertyRegistry.Property",
          "name": "",
          "type": "tuple"
        }
      ],
      "stateMutability": "view",
      "type": "function"
    },
    {
      "inputs": [
        {
          "internalType": "uint256",
          "name": "_propertyId",
          "type": "uint256"
        }
      ],
      "name": "getPropertyOwners",
      "outputs": [
        {
          "internalType": "address[]",
          "name": "ownerAddresses",
          "type": "address[]"
        },
        {
          "internalType": "uint256[]",
          "name": "percentages",
          "type": "uint256[]"
        }
      ],
      "stateMutability": "view",
      "type": "function"
    },
    {
      "inputs": [
        {
          "internalType": "uint256",
          "name": "_requestId",
          "type": "uint256"
        }
      ],
      "name": "getRequest",
      "outputs": [
        {
          "internalType": "uint256",
          "name": "id",
          "type": "uint256"
        },
        {
          "internalType": "string",
          "name": "name",
          "type": "string"
        },
        {
          "internalType": "string",
          "name": "partnershipAgreementUrl",
          "type": "string"
        },
        {
          "internalType": "string",
          "name": "maintenanceAgreementUrl",
          "type": "string"
        },
        {
          "internalType": "string",
          "name": "rentAgreementUrl",
          "type": "string"
        },
        {
          "internalType": "string",
          "name": "imageUrl",
          "type": "string"
        },
        {
          "internalType": "address",
          "name": "requester",
          "type": "address"
        },
        {
          "internalType": "uint8",
          "name": "status",
          "type": "uint8"
        },
        {
          "internalType": "uint256",
          "name": "propertyId",
          "type": "uint256"
        }
      ],
      "stateMutability": "view",
      "type": "function"
    },
    {
      "inputs": [
        {
          "internalType": "uint256",
          "name": "_requestId",
          "type": "uint256"
        }
      ],
      "name": "getRequestOwners",
      "outputs": [
        {
          "internalType": "address[]",
          "name": "ownerAddresses",
          "type": "address[]"
        },
        {
          "internalType": "uint256[]",
          "name": "percentages",
          "type": "uint256[]"
        }
      ],
      "stateMutability": "view",
      "type": "function"
    },
    {
      "inputs": [
        {
          "internalType": "address",
          "name": "owner",
          "type": "address"
        },
        {
          "internalType": "address",
          "name": "operator",
          "type": "address"
        }
      ],
      "name": "isApprovedForAll",
      "outputs": [
        {
          "internalType": "bool",
          "name": "",
          "type": "bool"
        }
      ],
      "stateMutability": "view",
      "type": "function"
    },
    {
      "inputs": [
        {
          "internalType": "uint256",
          "name": "_propertyId",
          "type": "uint256"
        },
        {
          "internalType": "address",
          "name": "_fractionalNFTAddress",
          "type": "address"
        },
        {
          "internalType": "uint256",
          "name": "_amount",
          "type": "uint256"
        },
        {
          "internalType": "uint256",
          "name": "_pricePerShare",
          "type": "uint256"
        }
      ],
      "name": "listFractionalNFTForSale",
      "outputs": [],
      "stateMutability": "nonpayable",
      "type": "function"
    },
    {
      "inputs": [
        {
          "internalType": "uint256",
          "name": "",
          "type": "uint256"
        }
      ],
      "name": "listings",
      "outputs": [
        {
          "internalType": "uint256",
          "name": "listingId",
          "type": "uint256"
        },
        {
          "internalType": "uint256",
          "name": "propertyId",
          "type": "uint256"
        },
        {
          "internalType": "address",
          "name": "fractionalNFTAddress",
          "type": "address"
        },
        {
          "internalType": "address",
          "name": "seller",
          "type": "address"
        },
        {
          "internalType": "uint256",
          "name": "amount",
          "type": "uint256"
        },
        {
          "internalType": "uint256",
          "name": "pricePerShare",
          "type": "uint256"
        },
        {
          "internalType": "enum PropertyRegistry.ListingStatus",
          "name": "status",
          "type": "uint8"
        }
      ],
      "stateMutability": "view",
      "type": "function"
    },
    {
      "inputs": [
        {
          "internalType": "uint256",
          "name": "_propertyId",
          "type": "uint256"
        },
        {
          "internalType": "address",
          "name": "_fractionalContract",
          "type": "address"
        }
      ],
      "name": "markFractionalized",
      "outputs": [],
      "stateMutability": "nonpayable",
      "type": "function"
    },
    {
      "inputs": [],
      "name": "name",
      "outputs": [
        {
          "internalType": "string",
          "name": "",
          "type": "string"
        }
      ],
      "stateMutability": "view",
      "type": "function"
    },
    {
      "inputs": [],
      "name": "owner",
      "outputs": [
        {
          "internalType": "address",
          "name": "",
          "type": "address"
        }
      ],
      "stateMutability": "view",
      "type": "function"
    },
    {
      "inputs": [
        {
          "internalType": "uint256",
          "name": "tokenId",
          "type": "uint256"
        }
      ],
      "name": "ownerOf",
      "outputs": [
        {
          "internalType": "address",
          "name": "",
          "type": "address"
        }
      ],
      "stateMutability": "view",
      "type": "function"
    },
    {
      "inputs": [],
      "name": "propertyCount",
      "outputs": [
        {
          "internalType": "uint256",
          "name": "",
          "type": "uint256"
        }
      ],
      "stateMutability": "view",
      "type": "function"
    },
    {
      "inputs": [
        {
          "internalType": "string",
          "name": "_name",
          "type": "string"
        },
        {
          "internalType": "address",
          "name": "_owner",
          "type": "address"
        },
        {
          "internalType": "string",
          "name": "_partnershipAgreementUrl",
          "type": "string"
        },
        {
          "internalType": "string",
          "name": "_maintenanceAgreementUrl",
          "type": "string"
        },
        {
          "internalType": "string",
          "name": "_rentAgreementUrl",
          "type": "string"
        },
        {
          "internalType": "string",
          "name": "_imageUrl",
          "type": "string"
        }
      ],
      "name": "registerProperty",
      "outputs": [],
      "stateMutability": "nonpayable",
      "type": "function"
    },
    {
      "inputs": [
        {
          "internalType": "uint256",
          "name": "_requestId",
          "type": "uint256"
        }
      ],
      "name": "rejectRequest",
      "outputs": [],
      "stateMutability": "nonpayable",
      "type": "function"
    },
    {
      "inputs": [],
      "name": "renounceOwnership",
      "outputs": [],
      "stateMutability": "nonpayable",
      "type": "function"
    },
    {
      "inputs": [],
      "name": "requestCount",
      "outputs": [
        {
          "internalType": "uint256",
          "name": "",
          "type": "uint256"
        }
      ],
      "stateMutability": "view",
      "type": "function"
    },
    {
      "inputs": [
        {
          "internalType": "address",
          "name": "from",
          "type": "address"
        },
        {
          "internalType": "address",
          "name": "to",
          "type": "address"
        },
        {
          "internalType": "uint256",
          "name": "tokenId",
          "type": "uint256"
        }
      ],
      "name": "safeTransferFrom",
      "outputs": [],
      "stateMutability": "nonpayable",
      "type": "function"
    },
    {
      "inputs": [
        {
          "internalType": "address",
          "name": "from",
          "type": "address"
        },
        {
          "internalType": "address",
          "name": "to",
          "type": "address"
        },
        {
          "internalType": "uint256",
          "name": "tokenId",
          "type": "uint256"
        },
        {
          "internalType": "bytes",
          "name": "data",
          "type": "bytes"
        }
      ],
      "name": "safeTransferFrom",
      "outputs": [],
      "stateMutability": "nonpayable",
      "type": "function"
    },
    {
      "inputs": [
        {
          "internalType": "address",
          "name": "",
          "type": "address"
        },
        {
          "internalType": "uint256",
          "name": "",
          "type": "uint256"
        }
      ],
      "name": "sellerListings",
      "outputs": [
        {
          "internalType": "uint256",
          "name": "",
          "type": "uint256"
        }
      ],
      "stateMutability": "view",
      "type": "function"
    },
    {
      "inputs": [
        {
          "internalType": "address",
          "name": "operator",
          "type": "address"
        },
        {
          "internalType": "bool",
          "name": "approved",
          "type": "bool"
        }
      ],
      "name": "setApprovalForAll",
      "outputs": [],
      "stateMutability": "nonpayable",
      "type": "function"
    },
    {
      "inputs": [
        {
          "internalType": "address",
          "name": "_fractionalizerAddress",
          "type": "address"
        }
      ],
      "name": "setFractionalizerAddress",
      "outputs": [],
      "stateMutability": "nonpayable",
      "type": "function"
    },
    {
      "inputs": [
        {
          "internalType": "bytes4",
          "name": "interfaceId",
          "type": "bytes4"
        }
      ],
      "name": "supportsInterface",
      "outputs": [
        {
          "internalType": "bool",
          "name": "",
          "type": "bool"
        }
      ],
      "stateMutability": "view",
      "type": "function"
    },
    {
      "inputs": [],
      "name": "symbol",
      "outputs": [
        {
          "internalType": "string",
          "name": "",
          "type": "string"
        }
      ],
      "stateMutability": "view",
      "type": "function"
    },
    {
      "inputs": [
        {
          "internalType": "uint256",
          "name": "tokenId",
          "type": "uint256"
        }
      ],
      "name": "tokenURI",
      "outputs": [
        {
          "internalType": "string",
          "name": "",
          "type": "string"
        }
      ],
      "stateMutability": "view",
      "type": "function"
    },
    {
      "inputs": [
        {
          "internalType": "address",
          "name": "from",
          "type": "address"
        },
        {
          "internalType": "address",
          "name": "to",
          "type": "address"
        },
        {
          "internalType": "uint256",
          "name": "tokenId",
          "type": "uint256"
        }
      ],
      "name": "transferFrom",
      "outputs": [],
      "stateMutability": "nonpayable",
      "type": "function"
    },
    {
      "inputs": [
        {
          "internalType": "address",
          "name": "newOwner",
          "type": "address"
        }
      ],
      "name": "transferOwnership",
      "outputs": [],
      "stateMutability": "nonpayable",
      "type": "function"
    }
  ],
  "bytecode": "0x608060405234801561001057600080fd5b50336040518060400160405280600d81526020016c1499585b115cdd185d19539195609a1b815250604051806040016040528060048152602001631491539560e21b815250816000908161006491906101a2565b50600161007182826101a2565b5050506001600160a01b0381166100a257604051631e4fbdf760e01b81526000600482015260240160405180910390fd5b6100ab816100b1565b50610260565b600680546001600160a01b038381166001600160a01b0319831681179093556040519116919082907f8be0079c531659141344cd1fd0a4f28419497f9722a3daafe3b4186f6b6457e090600090a35050565b634e487b7160e01b600052604160045260246000fd5b600181811c9082168061012d57607f821691505b60208210810361014d57634e487b7160e01b600052602260045260246000fd5b50919050565b601f82111561019d57806000526020600020601f840160051c8101602085101561017a5750805b601f840160051c820191505b8181101561019a5760008155600101610186565b50505b505050565b81516001600160401b038111156101bb576101bb610103565b6101cf816101c98454610119565b84610153565b6020601f82116001811461020357600083156101eb5750848201515b600019600385901b1c1916600184901b17845561019a565b600084815260208120601f198516915b828110156102335787850151825560209485019460019092019101610213565b50848210156102515786840151600019600387901b60f8161c191681555b50505050600190811b01905550565b61459e8061026f6000396000f3fe60806040526004361061020f5760003560e01c8063715018a611610118578063c58343ef116100a0578063de74e57b1161006f578063de74e57b14610637578063e25736b2146106b1578063e57ea49b146106d1578063e985e9c5146106f1578063f2fde38b1461071157600080fd5b8063c58343ef146105a2578063c87b56dd146105d7578063d03b0e49146105f7578063d7d1bbdb1461061757600080fd5b80638da5cb5b116100e75780638da5cb5b1461051a57806395d89b4114610538578063a22cb4651461054d578063b88d4fde1461056d578063c361a3351461058d57600080fd5b8063715018a6146104a557806376f82d01146104ba5780637c71dd24146104da5780638310a636146104fa57600080fd5b806332665ffb1161019b578063596a7cc81161016a578063596a7cc81461041b5780635badbe4c1461042e5780636352211e14610443578063701e50841461046357806370a082311461048557600080fd5b806332665ffb146103805780633467832d146103ad57806342842e0e146103cd57806354797676146103ed57600080fd5b8063095ea7b3116101e2578063095ea7b3146102d1578063107a274a146102f357806323b872dd146103205780632d7788db14610340578063305a67a81461036057600080fd5b806301ffc9a714610214578063054564f01461024957806306fdde0314610277578063081812fc14610299575b600080fd5b34801561022057600080fd5b5061023461022f366004613730565b610731565b60405190151581526020015b60405180910390f35b34801561025557600080fd5b50610269610264366004613772565b610783565b604051908152602001610240565b34801561028357600080fd5b5061028c6107b4565b60405161024091906137ee565b3480156102a557600080fd5b506102b96102b4366004613801565b610846565b6040516001600160a01b039091168152602001610240565b3480156102dd57600080fd5b506102f16102ec366004613772565b61086f565b005b3480156102ff57600080fd5b5061031361030e366004613801565b61087e565b60405161024091906138aa565b34801561032c57600080fd5b506102f161033b3660046138b8565b61095c565b34801561034c57600080fd5b506102f161035b366004613801565b6109e7565b34801561036c57600080fd5b506102f161037b366004613801565b610aba565b34801561038c57600080fd5b506103a061039b366004613801565b610cbe565b60405161024091906138f9565b3480156103b957600080fd5b506102f16103c83660046139b0565b61106f565b3480156103d957600080fd5b506102f16103e83660046138b8565b61112d565b3480156103f957600080fd5b5061040d610408366004613801565b61114d565b6040516102409291906139e0565b6102f1610429366004613a6b565b6112a9565b34801561043a57600080fd5b50600854610269565b34801561044f57600080fd5b506102b961045e366004613801565b61163f565b34801561046f57600080fd5b5061047861164a565b6040516102409190613a8d565b34801561049157600080fd5b506102696104a0366004613adb565b611817565b3480156104b157600080fd5b506102f161185f565b3480156104c657600080fd5b5061040d6104d5366004613801565b611873565b3480156104e657600080fd5b506102f16104f5366004613adb565b6119fc565b34801561050657600080fd5b506102f1610515366004613af8565b611a8a565b34801561052657600080fd5b506006546001600160a01b03166102b9565b34801561054457600080fd5b5061028c611f1a565b34801561055957600080fd5b506102f1610568366004613b43565b611f29565b34801561057957600080fd5b506102f1610588366004613c12565b611f34565b34801561059957600080fd5b50600754610269565b3480156105ae57600080fd5b506105c26105bd366004613801565b611f4c565b60405161024099989796959493929190613c91565b3480156105e357600080fd5b5061028c6105f2366004613801565b6122ad565b34801561060357600080fd5b50600f546102b9906001600160a01b031681565b34801561062357600080fd5b506102f1610632366004613801565b612322565b34801561064357600080fd5b5061069e610652366004613801565b600a602052600090815260409020805460018201546002830154600384015460048501546005860154600690960154949593946001600160a01b03938416949390921692909160ff1687565b6040516102409796959493929190613d29565b3480156106bd57600080fd5b506102f16106cc366004613e8c565b612933565b3480156106dd57600080fd5b506102f16106ec366004613fc8565b612d2b565b3480156106fd57600080fd5b5061023461070c3660046140be565b612ef6565b34801561071d57600080fd5b506102f161072c366004613adb565b612f24565b60006001600160e01b031982166380ac58cd60e01b148061076257506001600160e01b03198216635b5e139f60e01b145b8061077d57506301ffc9a760e01b6001600160e01b03198316145b92915050565b600b602052816000526040600020818154811061079f57600080fd5b90600052602060002001600091509150505481565b6060600080546107c3906140ec565b80601f01602080910402602001604051908101604052809291908181526020018280546107ef906140ec565b801561083c5780601f106108115761010080835404028352916020019161083c565b820191906000526020600020905b81548152906001019060200180831161081f57829003601f168201915b5050505050905090565b600061085182612f62565b506000828152600460205260409020546001600160a01b031661077d565b61087a828233612f9b565b5050565b6108866136bb565b6000828152600a602052604090205482146108bc5760405162461bcd60e51b81526004016108b390614126565b60405180910390fd5b6000828152600a6020908152604091829020825160e081018452815481526001820154928101929092526002808201546001600160a01b03908116948401949094526003820154909316606083015260048101546080830152600581015460a083015260068101549192909160c084019160ff909116908111156109425761094261381a565b60028111156109535761095361381a565b90525092915050565b6001600160a01b03821661098657604051633250574960e11b8152600060048201526024016108b3565b6000610993838333612fa8565b9050836001600160a01b0316816001600160a01b0316146109e1576040516364283d7b60e01b81526001600160a01b03808616600483015260248201849052821660448201526064016108b3565b50505050565b6109ef6130a1565b600081118015610a0157506008548111155b610a1d5760405162461bcd60e51b81526004016108b390614156565b6000818152600d60205260409020600881015460ff1615610a7c5760405162461bcd60e51b815260206004820152601960248201527814995c5d595cdd08185b1c9958591e481c1c9bd8d95cdcd959603a1b60448201526064016108b3565b60088101805460ff1916600217905560405182907f9d52f6db4ae8ca1b7f14d5c189f031a6bf3209b6666c4f6c01a67338c538181290600090a25050565b6000818152600a6020526040902080548214610ae85760405162461bcd60e51b81526004016108b390614126565b60038101546001600160a01b03163314610b445760405162461bcd60e51b815260206004820152601e60248201527f4f6e6c792073656c6c65722063616e2063616e63656c206c697374696e67000060448201526064016108b3565b6000600682015460ff166002811115610b5f57610b5f61381a565b14610ba45760405162461bcd60e51b81526020600482015260156024820152744c697374696e67206973206e6f742061637469766560581b60448201526064016108b3565b6002810154600382015460048084015460405163a9059cbb60e01b81526001600160a01b03938416928101929092526024820152911690819063a9059cbb906044016020604051808303816000875af1158015610c05573d6000803e3d6000fd5b505050506040513d601f19601f82011682018060405250810190610c299190614182565b610c7f5760405162461bcd60e51b815260206004820152602160248201527f4661696c656420746f2072657475726e20746f6b656e7320746f2073656c6c656044820152603960f91b60648201526084016108b3565b60068201805460ff1916600117905560405183907fc46ea9fee66461db46a6ac51d560a291533b66981fb9c09ca8948e8dc8d4247290600090a2505050565b610d006040518060e001604052806000815260200160608152602001606081526020016060815260200160608152602001606081526020016000151581525090565b6000610d0b8361163f565b6001600160a01b031603610d565760405162461bcd60e51b8152602060048201526012602482015271141c9bdc195c9d1e481b9bdd08199bdd5b9960721b60448201526064016108b3565b600c60008381526020019081526020016000206040518060e001604052908160008201548152602001600182018054610d8e906140ec565b80601f0160208091040260200160405190810160405280929190818152602001828054610dba906140ec565b8015610e075780601f10610ddc57610100808354040283529160200191610e07565b820191906000526020600020905b815481529060010190602001808311610dea57829003601f168201915b50505050508152602001600282018054610e20906140ec565b80601f0160208091040260200160405190810160405280929190818152602001828054610e4c906140ec565b8015610e995780601f10610e6e57610100808354040283529160200191610e99565b820191906000526020600020905b815481529060010190602001808311610e7c57829003601f168201915b50505050508152602001600382018054610eb2906140ec565b80601f0160208091040260200160405190810160405280929190818152602001828054610ede906140ec565b8015610f2b5780601f10610f0057610100808354040283529160200191610f2b565b820191906000526020600020905b815481529060010190602001808311610f0e57829003601f168201915b50505050508152602001600482018054610f44906140ec565b80601f0160208091040260200160405190810160405280929190818152602001828054610f70906140ec565b8015610fbd5780601f10610f9257610100808354040283529160200191610fbd565b820191906000526020600020905b815481529060010190602001808311610fa057829003601f168201915b50505050508152602001600582018054610fd6906140ec565b80601f0160208091040260200160405190810160405280929190818152602001828054611002906140ec565b801561104f5780601f106110245761010080835404028352916020019161104f565b820191906000526020600020905b81548152906001019060200180831161103257829003601f168201915b50505091835250506006919091015460ff16151560209091015292915050565b6110776130a1565b60006110828361163f565b6001600160a01b0316036110ce5760405162461bcd60e51b8152602060048201526013602482015272125b9d985b1a59081c1c9bdc195c9d1e481251606a1b60448201526064016108b3565b6000828152600c6020908152604091829020600601805460ff1916600117905590516001600160a01b038316815283917fc231e91a72847bed4aa7fbf4a0541bca6938e13eeaddbf3b0a68691f358f3984910160405180910390a25050565b61114883838360405180602001604052806000815250611f34565b505050565b6000818152600e6020526040902080546060918291806001600160401b0381111561117a5761117a613b71565b6040519080825280602002602001820160405280156111a3578160200160208202803683370190505b509350806001600160401b038111156111be576111be613b71565b6040519080825280602002602001820160405280156111e7578160200160208202803683370190505b50925060005b818110156112a1578281815481106112075761120761419f565b600091825260209091206002909102015485516001600160a01b03909116908690839081106112385761123861419f565b60200260200101906001600160a01b031690816001600160a01b03168152505082818154811061126a5761126a61419f565b90600052602060002090600202016001015484828151811061128e5761128e61419f565b60209081029190910101526001016111ed565b505050915091565b6000828152600a60205260409020805483146112d75760405162461bcd60e51b81526004016108b390614126565b6000600682015460ff1660028111156112f2576112f261381a565b146113375760405162461bcd60e51b81526020600482015260156024820152744c697374696e67206973206e6f742061637469766560581b60448201526064016108b3565b6003810154336001600160a01b03909116036113955760405162461bcd60e51b815260206004820152601b60248201527f43616e6e6f742062757920796f7572206f776e206c697374696e67000000000060448201526064016108b3565b600082116113f15760405162461bcd60e51b8152602060048201526024808201527f416d6f756e7420746f20627579206d75737420626520677265617465722074686044820152630616e20360e41b60648201526084016108b3565b80600401548211156114515760405162461bcd60e51b815260206004820152602360248201527f416d6f756e7420746f206275792065786365656473206c697374656420616d6f6044820152621d5b9d60ea1b60648201526084016108b3565b600081600501548361146391906141cb565b90508034146114b45760405162461bcd60e51b815260206004820152601960248201527f496e636f72726563742045544820616d6f756e742073656e740000000000000060448201526064016108b3565b600282015460405163a9059cbb60e01b8152336004820152602481018590526001600160a01b0390911690819063a9059cbb906044016020604051808303816000875af1158015611509573d6000803e3d6000fd5b505050506040513d601f19601f8201168201806040525081019061152d9190614182565b6115845760405162461bcd60e51b815260206004820152602260248201527f4661696c656420746f207472616e7366657220746f6b656e7320746f2062757960448201526132b960f11b60648201526084016108b3565b60038301546040516001600160a01b03909116903480156108fc02916000818181858888f193505050501580156115bf573d6000803e3d6000fd5b50838360040160008282546115d491906141e2565b909155505060048301546000036115f55760068301805460ff191660021790555b6001830154604080518681526020810185905233929188917ffa74a096ee3d94cce8730f0a356ca7c9e5f657ad2632ccc63f6c4a3faaee1fc2910160405180910390a45050505050565b600061077d82612f62565b6060600060015b60095481116116a5576000818152600a602052604081206006015460ff1660028111156116805761168061381a565b03611693578161168f816141f5565b9250505b8061169d816141f5565b915050611651565b506000816001600160401b038111156116c0576116c0613b71565b6040519080825280602002602001820160405280156116f957816020015b6116e66136bb565b8152602001906001900390816116de5790505b509050600060015b600954811161180e576000818152600a602052604081206006015460ff1660028111156117305761173061381a565b036117fc576000818152600a6020908152604091829020825160e081018452815481526001820154928101929092526002808201546001600160a01b03908116948401949094526003820154909316606083015260048101546080830152600581015460a083015260068101549192909160c084019160ff909116908111156117bb576117bb61381a565b60028111156117cc576117cc61381a565b815250508383815181106117e2576117e261419f565b602002602001018190525081806117f8906141f5565b9250505b80611806816141f5565b915050611701565b50909392505050565b60006001600160a01b038216611843576040516322718ad960e21b8152600060048201526024016108b3565b506001600160a01b031660009081526003602052604090205490565b6118676130a1565b61187160006130ce565b565b60608060008311801561188857506008548311155b6118a45760405162461bcd60e51b81526004016108b390614156565b6000838152600d602052604090206007810154806001600160401b038111156118cf576118cf613b71565b6040519080825280602002602001820160405280156118f8578160200160208202803683370190505b509350806001600160401b0381111561191357611913613b71565b60405190808252806020026020018201604052801561193c578160200160208202803683370190505b50925060005b818110156112a15782600701818154811061195f5761195f61419f565b600091825260209091206002909102015485516001600160a01b03909116908690839081106119905761199061419f565b60200260200101906001600160a01b031690816001600160a01b0316815250508260070181815481106119c5576119c561419f565b9060005260206000209060020201600101548482815181106119e9576119e961419f565b6020908102919091010152600101611942565b611a046130a1565b600f546001600160a01b031615611a685760405162461bcd60e51b815260206004820152602260248201527f4672616374696f6e616c697a6572206164647265737320616c72656164792073604482015261195d60f21b60648201526084016108b3565b600f80546001600160a01b0319166001600160a01b0392909216919091179055565b60008211611ae85760405162461bcd60e51b815260206004820152602560248201527f416d6f756e7420746f206c697374206d75737420626520677265617465722074604482015264068616e20360dc1b60648201526084016108b3565b60008111611b475760405162461bcd60e51b815260206004820152602660248201527f507269636520706572207368617265206d75737420626520677265617465722060448201526507468616e20360d41b60648201526084016108b3565b600f5460405163097ca0c360e11b8152600481018690526001600160a01b038581169216906312f9418690602401602060405180830381865afa158015611b92573d6000803e3d6000fd5b505050506040513d601f19601f82011682018060405250810190611bb6919061420e565b6001600160a01b031614611c205760405162461bcd60e51b815260206004820152602b60248201527f496e76616c6964204672616374696f6e616c204e46542061646472657373206660448201526a6f722070726f706572747960a81b60648201526084016108b3565b6040516370a0823160e01b8152336004820152839083906001600160a01b038316906370a0823190602401602060405180830381865afa158015611c68573d6000803e3d6000fd5b505050506040513d601f19601f82011682018060405250810190611c8c919061422b565b1015611cda5760405162461bcd60e51b815260206004820152601e60248201527f496e73756666696369656e74206672616374696f6e616c20746f6b656e73000060448201526064016108b3565b6040516323b872dd60e01b8152336004820152306024820152604481018490526001600160a01b038216906323b872dd906064016020604051808303816000875af1158015611d2d573d6000803e3d6000fd5b505050506040513d601f19601f82011682018060405250810190611d519190614182565b611dbb5760405162461bcd60e51b815260206004820152603560248201527f546f6b656e207472616e73666572206661696c65642e2044696420796f7520616044820152747070726f7665207468697320636f6e74726163743f60581b60648201526084016108b3565b60098054906000611dcb836141f5565b90915550506009546040805160e08101825282815260208082018981526001600160a01b038981168486019081523360608601908152608086018b815260a087018b8152600060c089018181528b8252600a909852989098208751815594516001808701919091559251600280870180549287166001600160a01b031993841617905592516003870180549190961691161790935591516004840155945160058301559151600682018054949592949193909260ff1990921691908490811115611e9757611e9761381a565b021790555050336000818152600b6020908152604080832080546001810182559084529282902090920185905581516001600160a01b038a168152908101889052908101869052909150879083907f12afaf00feea2bbc2b3ed889dec27a67ad6099da34f75fe3e222548769ea3eea9060600160405180910390a4505050505050565b6060600180546107c3906140ec565b61087a338383613120565b611f3f84848461095c565b6109e133858585856131bf565b600060608060608060606000806000808a118015611f6c57506008548a11155b611f885760405162461bcd60e51b81526004016108b390614156565b60008a8152600d602052604090208054600682015460088301546009840154600185018054909360028701936003880193600489019360058a01936001600160a01b03169260ff1691908890611fdd906140ec565b80601f0160208091040260200160405190810160405280929190818152602001828054612009906140ec565b80156120565780601f1061202b57610100808354040283529160200191612056565b820191906000526020600020905b81548152906001019060200180831161203957829003601f168201915b50505050509750868054612069906140ec565b80601f0160208091040260200160405190810160405280929190818152602001828054612095906140ec565b80156120e25780601f106120b7576101008083540402835291602001916120e2565b820191906000526020600020905b8154815290600101906020018083116120c557829003601f168201915b505050505096508580546120f5906140ec565b80601f0160208091040260200160405190810160405280929190818152602001828054612121906140ec565b801561216e5780601f106121435761010080835404028352916020019161216e565b820191906000526020600020905b81548152906001019060200180831161215157829003601f168201915b50505050509550848054612181906140ec565b80601f01602080910402602001604051908101604052809291908181526020018280546121ad906140ec565b80156121fa5780601f106121cf576101008083540402835291602001916121fa565b820191906000526020600020905b8154815290600101906020018083116121dd57829003601f168201915b5050505050945083805461220d906140ec565b80601f0160208091040260200160405190810160405280929190818152602001828054612239906140ec565b80156122865780601f1061225b57610100808354040283529160200191612286565b820191906000526020600020905b81548152906001019060200180831161226957829003601f168201915b50505050509350995099509950995099509950995099509950509193959799909294969850565b60606122b882612f62565b5060006122d060408051602081019091526000815290565b905060008151116122f0576040518060200160405280600081525061231b565b806122fa846132ea565b60405160200161230b929190614244565b6040516020818303038152906040525b9392505050565b60008111801561233457506008548111155b6123505760405162461bcd60e51b81526004016108b390614156565b6000818152600d60205260409020600881015460ff16156123af5760405162461bcd60e51b815260206004820152601960248201527814995c5d595cdd08185b1c9958591e481c1c9bd8d95cdcd959603a1b60448201526064016108b3565b600780549060006123bf836141f5565b9091555050600754600f546123dd906001600160a01b03168261337c565b6040518060e001604052808281526020018360010180546123fd906140ec565b80601f0160208091040260200160405190810160405280929190818152602001828054612429906140ec565b80156124765780601f1061244b57610100808354040283529160200191612476565b820191906000526020600020905b81548152906001019060200180831161245957829003601f168201915b5050505050815260200183600201805461248f906140ec565b80601f01602080910402602001604051908101604052809291908181526020018280546124bb906140ec565b80156125085780601f106124dd57610100808354040283529160200191612508565b820191906000526020600020905b8154815290600101906020018083116124eb57829003601f168201915b50505050508152602001836003018054612521906140ec565b80601f016020809104026020016040519081016040528092919081815260200182805461254d906140ec565b801561259a5780601f1061256f5761010080835404028352916020019161259a565b820191906000526020600020905b81548152906001019060200180831161257d57829003601f168201915b505050505081526020018360040180546125b3906140ec565b80601f01602080910402602001604051908101604052809291908181526020018280546125df906140ec565b801561262c5780601f106126015761010080835404028352916020019161262c565b820191906000526020600020905b81548152906001019060200180831161260f57829003601f168201915b50505050508152602001836005018054612645906140ec565b80601f0160208091040260200160405190810160405280929190818152602001828054612671906140ec565b80156126be5780601f10612693576101008083540402835291602001916126be565b820191906000526020600020905b8154815290600101906020018083116126a157829003601f168201915b5050509183525050600160209182018190526000848152600c8352604090208351815591830151908201906126f390826142ba565b506040820151600282019061270890826142ba565b506060820151600382019061271d90826142ba565b506080820151600482019061273290826142ba565b5060a0820151600582019061274790826142ba565b5060c091909101516006909101805460ff191691151591909117905560005b60078301548110156127eb576000828152600e60205260409020600784018054839081106127965761279661419f565b6000918252602080832084546001818101875595855291909320600292830290930180549190920290920180546001600160a01b0319166001600160a01b039093169290921782558201549082015501612766565b5060088201805460ff1916600117905560098201819055600061280d826132ea565b60405160200161281d9190614378565b60408051601f1981840301815290829052600f549092506001600160a01b03169063724334c09084906128579060018801906020016143a1565b604051602081830303815290604052846127106040518563ffffffff1660e01b81526004016128899493929190614433565b600060405180830381600087803b1580156128a357600080fd5b505af11580156128b7573d6000803e3d6000fd5b50506040518492508691507f753157c010caf5212ddd7cc78dab82f61b4342dc650ff43d540e19e3abf5ca9890600090a3306001600160a01b0316827f48f60036379fd7c4097915cf4b2dcab366c2d3881ae8b3cb2c19d6f7e35719b9856001016040516129259190614470565b60405180910390a350505050565b60008751116129745760405162461bcd60e51b815260206004820152600d60248201526c13985b59481c995c5d5a5c9959609a1b60448201526064016108b3565b60008251116129c55760405162461bcd60e51b815260206004820152601b60248201527f4174206c65617374206f6e65206f776e6572207265717569726564000000000060448201526064016108b3565b8051825114612a255760405162461bcd60e51b815260206004820152602660248201527f4f776e65727320616e642070657263656e7461676573206c656e677468206d696044820152650e6dac2e8c6d60d31b60648201526084016108b3565b6000805b8251811015612b475760006001600160a01b0316848281518110612a4f57612a4f61419f565b60200260200101516001600160a01b031603612aa55760405162461bcd60e51b8152602060048201526015602482015274496e76616c6964206f776e6572206164647265737360581b60448201526064016108b3565b6000838281518110612ab957612ab961419f565b602002602001015111612b185760405162461bcd60e51b815260206004820152602160248201527f50657263656e74616765206d7573742062652067726561746572207468616e206044820152600360fc1b60648201526084016108b3565b828181518110612b2a57612b2a61419f565b602002602001015182612b3d91906144fb565b9150600101612a29565b508061271014612b995760405162461bcd60e51b815260206004820181905260248201527f546f74616c2070657263656e74616765206d75737420657175616c203130302560448201526064016108b3565b60088054906000612ba9836141f5565b90915550506008546000818152600d6020526040902081815560018101612bd08b826142ba565b5060028101612bdf8a826142ba565b5060038101612bee89826142ba565b5060048101612bfd88826142ba565b5060058101612c0c87826142ba565b506006810180546001600160a01b0319163317905560088101805460ff191690556000600982018190555b8551811015612cdc57816007016040518060400160405280888481518110612c6157612c6161419f565b60200260200101516001600160a01b03168152602001878481518110612c8957612c8961419f565b602090810291909101810151909152825460018082018555600094855293829020835160029092020180546001600160a01b0319166001600160a01b039092169190911781559101519082015501612c37565b50336001600160a01b0316827f0bd2afa1d657100ddd5b1150fd06f6d3d3e2e90d0e95ef0e1d916883884f523a8c604051612d1791906137ee565b60405180910390a350505050505050505050565b612d336130a1565b6000865111612d745760405162461bcd60e51b815260206004820152600d60248201526c13985b59481c995c5d5a5c9959609a1b60448201526064016108b3565b6001600160a01b038516612dba5760405162461bcd60e51b815260206004820152600d60248201526c24b73b30b634b21037bbb732b960991b60448201526064016108b3565b60078054906000612dca836141f5565b9091555050600754612ddc868261337c565b6040805160e08101825282815260208082018a8152828401899052606083018890526080830187905260a08301869052600060c08401819052858152600c9092529290208151815591519091906001820190612e3890826142ba565b5060408201516002820190612e4d90826142ba565b5060608201516003820190612e6290826142ba565b5060808201516004820190612e7790826142ba565b5060a08201516005820190612e8c90826142ba565b5060c091909101516006909101805460ff19169115159190911790556040516001600160a01b0387169082907f48f60036379fd7c4097915cf4b2dcab366c2d3881ae8b3cb2c19d6f7e35719b990612ee5908b906137ee565b60405180910390a350505050505050565b6001600160a01b03918216600090815260056020908152604080832093909416825291909152205460ff1690565b612f2c6130a1565b6001600160a01b038116612f5657604051631e4fbdf760e01b8152600060048201526024016108b3565b612f5f816130ce565b50565b6000818152600260205260408120546001600160a01b03168061077d57604051637e27328960e01b8152600481018490526024016108b3565b6111488383836001613396565b6000828152600260205260408120546001600160a01b0390811690831615612fd557612fd581848661349c565b6001600160a01b0381161561301357612ff2600085600080613396565b6001600160a01b038116600090815260036020526040902080546000190190555b6001600160a01b03851615613042576001600160a01b0385166000908152600360205260409020805460010190555b60008481526002602052604080822080546001600160a01b0319166001600160a01b0389811691821790925591518793918516917fddf252ad1be2c89b69c2b068fc378daa952ba7f163c4a11628f55a4df523b3ef91a4949350505050565b6006546001600160a01b031633146118715760405163118cdaa760e01b81523360048201526024016108b3565b600680546001600160a01b038381166001600160a01b0319831681179093556040519116919082907f8be0079c531659141344cd1fd0a4f28419497f9722a3daafe3b4186f6b6457e090600090a35050565b6001600160a01b03821661315257604051630b61174360e31b81526001600160a01b03831660048201526024016108b3565b6001600160a01b03838116600081815260056020908152604080832094871680845294825291829020805460ff191686151590811790915591519182527f17307eab39ab6107e8899845ad3d59bd9653f200f220920489ca2b5937696c31910160405180910390a3505050565b6001600160a01b0383163b156132e357604051630a85bd0160e11b81526001600160a01b0384169063150b7a029061320190889088908790879060040161450e565b6020604051808303816000875af192505050801561323c575060408051601f3d908101601f191682019092526132399181019061454b565b60015b6132a5573d80801561326a576040519150601f19603f3d011682016040523d82523d6000602084013e61326f565b606091505b50805160000361329d57604051633250574960e11b81526001600160a01b03851660048201526024016108b3565b805160208201fd5b6001600160e01b03198116630a85bd0160e11b146132e157604051633250574960e11b81526001600160a01b03851660048201526024016108b3565b505b5050505050565b606060006132f783613500565b60010190506000816001600160401b0381111561331657613316613b71565b6040519080825280601f01601f191660200182016040528015613340576020820181803683370190505b5090508181016020015b600019016f181899199a1a9b1b9c1cb0b131b232b360811b600a86061a8153600a850494508461334a57509392505050565b61087a8282604051806020016040528060008152506135d8565b80806133aa57506001600160a01b03821615155b1561346c5760006133ba84612f62565b90506001600160a01b038316158015906133e65750826001600160a01b0316816001600160a01b031614155b80156133f957506133f78184612ef6565b155b156134225760405163a9fbf51f60e01b81526001600160a01b03841660048201526024016108b3565b811561346a5783856001600160a01b0316826001600160a01b03167f8c5be1e5ebec7d5bd14f71427d1e84f3dd0314c0f7b2291e5b200ac8c7c3b92560405160405180910390a45b505b5050600090815260046020526040902080546001600160a01b0319166001600160a01b0392909216919091179055565b6134a78383836135f0565b611148576001600160a01b0383166134d557604051637e27328960e01b8152600481018290526024016108b3565b60405163177e802f60e01b81526001600160a01b0383166004820152602481018290526044016108b3565b60008072184f03e93ff9f4daa797ed6e38ed64bf6a1f0160401b831061353f5772184f03e93ff9f4daa797ed6e38ed64bf6a1f0160401b830492506040015b6d04ee2d6d415b85acef8100000000831061356b576d04ee2d6d415b85acef8100000000830492506020015b662386f26fc10000831061358957662386f26fc10000830492506010015b6305f5e10083106135a1576305f5e100830492506008015b61271083106135b557612710830492506004015b606483106135c7576064830492506002015b600a831061077d5760010192915050565b6135e28383613656565b6111483360008585856131bf565b60006001600160a01b0383161580159061364e5750826001600160a01b0316846001600160a01b0316148061362a575061362a8484612ef6565b8061364e57506000828152600460205260409020546001600160a01b038481169116145b949350505050565b6001600160a01b03821661368057604051633250574960e11b8152600060048201526024016108b3565b600061368e83836000612fa8565b90506001600160a01b03811615611148576040516339e3563760e11b8152600060048201526024016108b3565b6040518060e00160405280600081526020016000815260200160006001600160a01b0316815260200160006001600160a01b031681526020016000815260200160008152602001600060028111156137155761371561381a565b905290565b6001600160e01b031981168114612f5f57600080fd5b60006020828403121561374257600080fd5b813561231b8161371a565b6001600160a01b0381168114612f5f57600080fd5b803561376d8161374d565b919050565b6000806040838503121561378557600080fd5b82356137908161374d565b946020939093013593505050565b60005b838110156137b95781810151838201526020016137a1565b50506000910152565b600081518084526137da81602086016020860161379e565b601f01601f19169290920160200192915050565b60208152600061231b60208301846137c2565b60006020828403121561381357600080fd5b5035919050565b634e487b7160e01b600052602160045260246000fd5b6003811061384e57634e487b7160e01b600052602160045260246000fd5b9052565b805182526020810151602083015260018060a01b03604082015116604083015260018060a01b0360608201511660608301526080810151608083015260a081015160a083015260c081015161114860c0840182613830565b60e0810161077d8284613852565b6000806000606084860312156138cd57600080fd5b83356138d88161374d565b925060208401356138e88161374d565b929592945050506040919091013590565b60208152815160208201526000602083015160e060408401526139206101008401826137c2565b90506040840151601f1984830301606085015261393d82826137c2565b9150506060840151601f1984830301608085015261395b82826137c2565b9150506080840151601f198483030160a085015261397982826137c2565b91505060a0840151601f198483030160c085015261399782826137c2565b91505060c0840151151560e08401528091505092915050565b600080604083850312156139c357600080fd5b8235915060208301356139d58161374d565b809150509250929050565b6040808252835190820181905260009060208501906060840190835b81811015613a235783516001600160a01b03168352602093840193909201916001016139fc565b50508381036020808601919091528551808352918101925085019060005b81811015613a5f578251845260209384019390920191600101613a41565b50919695505050505050565b60008060408385031215613a7e57600080fd5b50508035926020909101359150565b602080825282518282018190526000918401906040840190835b81811015613ad057613aba838551613852565b6020939093019260e09290920191600101613aa7565b509095945050505050565b600060208284031215613aed57600080fd5b813561231b8161374d565b60008060008060808587031215613b0e57600080fd5b843593506020850135613b208161374d565b93969395505050506040820135916060013590565b8015158114612f5f57600080fd5b60008060408385031215613b5657600080fd5b8235613b618161374d565b915060208301356139d581613b35565b634e487b7160e01b600052604160045260246000fd5b604051601f8201601f191681016001600160401b0381118282101715613baf57613baf613b71565b604052919050565b6000806001600160401b03841115613bd157613bd1613b71565b50601f8301601f1916602001613be681613b87565b915050828152838383011115613bfb57600080fd5b828260208301376000602084830101529392505050565b60008060008060808587031215613c2857600080fd5b8435613c338161374d565b93506020850135613c438161374d565b92506040850135915060608501356001600160401b03811115613c6557600080fd5b8501601f81018713613c7657600080fd5b613c8587823560208401613bb7565b91505092959194509250565b89815261012060208201526000613cac61012083018b6137c2565b8281036040840152613cbe818b6137c2565b90508281036060840152613cd2818a6137c2565b90508281036080840152613ce681896137c2565b905082810360a0840152613cfa81886137c2565b6001600160a01b039690961660c0840152505060ff9290921660e0830152610100909101529695505050505050565b878152602081018790526001600160a01b038681166040830152851660608201526080810184905260a0810183905260e08101613d6960c0830184613830565b98975050505050505050565b600082601f830112613d8657600080fd5b61231b83833560208501613bb7565b60006001600160401b03821115613dae57613dae613b71565b5060051b60200190565b600082601f830112613dc957600080fd5b8135613ddc613dd782613d95565b613b87565b8082825260208201915060208360051b860101925085831115613dfe57600080fd5b602085015b83811015613e24578035613e168161374d565b835260209283019201613e03565b5095945050505050565b600082601f830112613e3f57600080fd5b8135613e4d613dd782613d95565b8082825260208201915060208360051b860101925085831115613e6f57600080fd5b602085015b83811015613e24578035835260209283019201613e74565b600080600080600080600060e0888a031215613ea757600080fd5b87356001600160401b03811115613ebd57600080fd5b613ec98a828b01613d75565b97505060208801356001600160401b03811115613ee557600080fd5b613ef18a828b01613d75565b96505060408801356001600160401b03811115613f0d57600080fd5b613f198a828b01613d75565b95505060608801356001600160401b03811115613f3557600080fd5b613f418a828b01613d75565b94505060808801356001600160401b03811115613f5d57600080fd5b613f698a828b01613d75565b93505060a08801356001600160401b03811115613f8557600080fd5b613f918a828b01613db8565b92505060c08801356001600160401b03811115613fad57600080fd5b613fb98a828b01613e2e565b91505092959891949750929550565b60008060008060008060c08789031215613fe157600080fd5b86356001600160401b03811115613ff757600080fd5b61400389828a01613d75565b96505061401260208801613762565b945060408701356001600160401b0381111561402d57600080fd5b61403989828a01613d75565b94505060608701356001600160401b0381111561405557600080fd5b61406189828a01613d75565b93505060808701356001600160401b0381111561407d57600080fd5b61408989828a01613d75565b92505060a08701356001600160401b038111156140a557600080fd5b6140b189828a01613d75565b9150509295509295509295565b600080604083850312156140d157600080fd5b82356140dc8161374d565b915060208301356139d58161374d565b600181811c9082168061410057607f821691505b60208210810361412057634e487b7160e01b600052602260045260246000fd5b50919050565b602080825260169082015275131a5cdd1a5b99c8191bd95cc81b9bdd08195e1a5cdd60521b604082015260600190565b602080825260129082015271125b9d985b1a59081c995c5d595cdd08125160721b604082015260600190565b60006020828403121561419457600080fd5b815161231b81613b35565b634e487b7160e01b600052603260045260246000fd5b634e487b7160e01b600052601160045260246000fd5b808202811582820484141761077d5761077d6141b5565b8181038181111561077d5761077d6141b5565b600060018201614207576142076141b5565b5060010190565b60006020828403121561422057600080fd5b815161231b8161374d565b60006020828403121561423d57600080fd5b5051919050565b6000835161425681846020880161379e565b83519083019061426a81836020880161379e565b01949350505050565b601f82111561114857806000526020600020601f840160051c8101602085101561429a5750805b601f840160051c820191505b818110156132e357600081556001016142a6565b81516001600160401b038111156142d3576142d3613b71565b6142e7816142e184546140ec565b84614273565b6020601f82116001811461431b57600083156143035750848201515b600019600385901b1c1916600184901b1784556132e3565b600084815260208120601f198516915b8281101561434b578785015182556020948501946001909201910161432b565b50848210156143695786840151600019600387901b60f8161c191681555b50505050600190811b01905550565b602360f91b81526000825161439481600185016020870161379e565b9190910160010192915050565b6a0233930b1ba34b7b730b6160ad1b815260008083546143c0816140ec565b6001821680156143d757600181146143f257614428565b60ff198316600b870152600b82151583028701019350614428565b86600052602060002060005b8381101561441d578154888201600b01526001909101906020016143fe565b5050600b8287010193505b509195945050505050565b84815260806020820152600061444c60808301866137c2565b828103604084015261445e81866137c2565b91505082606083015295945050505050565b602081526000808354614482816140ec565b80602086015260018216600081146144a157600181146144bd57614428565b60ff1983166040870152604082151560051b8701019350614428565b86600052602060002060005b838110156144e8578154888201604001526001909101906020016144c9565b8701604001945050509195945050505050565b8082018082111561077d5761077d6141b5565b6001600160a01b0385811682528416602082015260408101839052608060608201819052600090614541908301846137c2565b9695505050505050565b60006020828403121561455d57600080fd5b815161231b8161371a56fea2646970667358221220f4007da7d857dd4b13b4f0f1f3a7fd6acc73354840975115bef8cc9d4ab264fd64736f6c634300081c0033",
  "linkReferences": {},
  "deployedLinkReferences": {}
}