{
  "_format": "hh-sol-artifact-1",
  "contractName": "PropertyRegistry",
  "sourceName": "contracts/PropertyRegistry.sol",
  "abi": [
    {
      "inputs": [],
      "stateMutability": "nonpayable",
      "type": "constructor"
    },
    {
      "inputs": [
        {
          "internalType": "address",
          "name": "sender",
          "type": "address"
        },
        {
          "internalType": "uint256",
          "name": "tokenId",
          "type": "uint256"
        },
        {
          "internalType": "address",
          "name": "owner",
          "type": "address"
        }
      ],
      "name": "ERC721IncorrectOwner",
      "type": "error"
    },
    {
      "inputs": [
        {
          "internalType": "address",
          "name": "operator",
          "type": "address"
        },
        {
          "internalType": "uint256",
          "name": "tokenId",
          "type": "uint256"
        }
      ],
      "name": "ERC721InsufficientApproval",
      "type": "error"
    },
    {
      "inputs": [
        {
          "internalType": "address",
          "name": "approver",
          "type": "address"
        }
      ],
      "name": "ERC721InvalidApprover",
      "type": "error"
    },
    {
      "inputs": [
        {
          "internalType": "address",
          "name": "operator",
          "type": "address"
        }
      ],
      "name": "ERC721InvalidOperator",
      "type": "error"
    },
    {
      "inputs": [
        {
          "internalType": "address",
          "name": "owner",
          "type": "address"
        }
      ],
      "name": "ERC721InvalidOwner",
      "type": "error"
    },
    {
      "inputs": [
        {
          "internalType": "address",
          "name": "receiver",
          "type": "address"
        }
      ],
      "name": "ERC721InvalidReceiver",
      "type": "error"
    },
    {
      "inputs": [
        {
          "internalType": "address",
          "name": "sender",
          "type": "address"
        }
      ],
      "name": "ERC721InvalidSender",
      "type": "error"
    },
    {
      "inputs": [
        {
          "internalType": "uint256",
          "name": "tokenId",
          "type": "uint256"
        }
      ],
      "name": "ERC721NonexistentToken",
      "type": "error"
    },
    {
      "inputs": [
        {
          "internalType": "address",
          "name": "owner",
          "type": "address"
        }
      ],
      "name": "OwnableInvalidOwner",
      "type": "error"
    },
    {
      "inputs": [
        {
          "internalType": "address",
          "name": "account",
          "type": "address"
        }
      ],
      "name": "OwnableUnauthorizedAccount",
      "type": "error"
    },
    {
      "anonymous": false,
      "inputs": [
        {
          "indexed": true,
          "internalType": "address",
          "name": "owner",
          "type": "address"
        },
        {
          "indexed": true,
          "internalType": "address",
          "name": "approved",
          "type": "address"
        },
        {
          "indexed": true,
          "internalType": "uint256",
          "name": "tokenId",
          "type": "uint256"
        }
      ],
      "name": "Approval",
      "type": "event"
    },
    {
      "anonymous": false,
      "inputs": [
        {
          "indexed": true,
          "internalType": "address",
          "name": "owner",
          "type": "address"
        },
        {
          "indexed": true,
          "internalType": "address",
          "name": "operator",
          "type": "address"
        },
        {
          "indexed": false,
          "internalType": "bool",
          "name": "approved",
          "type": "bool"
        }
      ],
      "name": "ApprovalForAll",
      "type": "event"
    },
    {
      "anonymous": false,
      "inputs": [
        {
          "indexed": true,
          "internalType": "address",
          "name": "previousOwner",
          "type": "address"
        },
        {
          "indexed": true,
          "internalType": "address",
          "name": "newOwner",
          "type": "address"
        }
      ],
      "name": "OwnershipTransferred",
      "type": "event"
    },
    {
      "anonymous": false,
      "inputs": [
        {
          "indexed": true,
          "internalType": "uint256",
          "name": "propertyId",
          "type": "uint256"
        },
        {
          "indexed": false,
          "internalType": "address",
          "name": "fractionalContract",
          "type": "address"
        }
      ],
      "name": "PropertyFractionalized",
      "type": "event"
    },
    {
      "anonymous": false,
      "inputs": [
        {
          "indexed": true,
          "internalType": "uint256",
          "name": "propertyId",
          "type": "uint256"
        },
        {
          "indexed": false,
          "internalType": "string",
          "name": "name",
          "type": "string"
        },
        {
          "indexed": true,
          "internalType": "address",
          "name": "owner",
          "type": "address"
        }
      ],
      "name": "PropertyRegistered",
      "type": "event"
    },
    {
      "anonymous": false,
      "inputs": [
        {
          "indexed": true,
          "internalType": "address",
          "name": "from",
          "type": "address"
        },
        {
          "indexed": true,
          "internalType": "address",
          "name": "to",
          "type": "address"
        },
        {
          "indexed": true,
          "internalType": "uint256",
          "name": "tokenId",
          "type": "uint256"
        }
      ],
      "name": "Transfer",
      "type": "event"
    },
    {
      "inputs": [
        {
          "internalType": "address",
          "name": "to",
          "type": "address"
        },
        {
          "internalType": "uint256",
          "name": "tokenId",
          "type": "uint256"
        }
      ],
      "name": "approve",
      "outputs": [],
      "stateMutability": "nonpayable",
      "type": "function"
    },
    {
      "inputs": [
        {
          "internalType": "address",
          "name": "owner",
          "type": "address"
        }
      ],
      "name": "balanceOf",
      "outputs": [
        {
          "internalType": "uint256",
          "name": "",
          "type": "uint256"
        }
      ],
      "stateMutability": "view",
      "type": "function"
    },
    {
      "inputs": [
        {
          "internalType": "uint256",
          "name": "tokenId",
          "type": "uint256"
        }
      ],
      "name": "getApproved",
      "outputs": [
        {
          "internalType": "address",
          "name": "",
          "type": "address"
        }
      ],
      "stateMutability": "view",
      "type": "function"
    },
    {
      "inputs": [
        {
          "internalType": "uint256",
          "name": "_id",
          "type": "uint256"
        }
      ],
      "name": "getProperty",
      "outputs": [
        {
          "components": [
            {
              "internalType": "uint256",
              "name": "id",
              "type": "uint256"
            },
            {
              "internalType": "string",
              "name": "name",
              "type": "string"
            },
            {
              "internalType": "string",
              "name": "partnershipAgreementUrl",
              "type": "string"
            },
            {
              "internalType": "string",
              "name": "maintenanceAgreementUrl",
              "type": "string"
            },
            {
              "internalType": "string",
              "name": "rentAgreementUrl",
              "type": "string"
            },
            {
              "internalType": "string",
              "name": "imageUrl",
              "type": "string"
            },
            {
              "internalType": "bool",
              "name": "isFractionalized",
              "type": "bool"
            }
          ],
          "internalType": "struct PropertyRegistry.Property",
          "name": "",
          "type": "tuple"
        }
      ],
      "stateMutability": "view",
      "type": "function"
    },
    {
      "inputs": [
        {
          "internalType": "address",
          "name": "owner",
          "type": "address"
        },
        {
          "internalType": "address",
          "name": "operator",
          "type": "address"
        }
      ],
      "name": "isApprovedForAll",
      "outputs": [
        {
          "internalType": "bool",
          "name": "",
          "type": "bool"
        }
      ],
      "stateMutability": "view",
      "type": "function"
    },
    {
      "inputs": [
        {
          "internalType": "uint256",
          "name": "_propertyId",
          "type": "uint256"
        },
        {
          "internalType": "address",
          "name": "_fractionalContract",
          "type": "address"
        }
      ],
      "name": "markFractionalized",
      "outputs": [],
      "stateMutability": "nonpayable",
      "type": "function"
    },
    {
      "inputs": [],
      "name": "name",
      "outputs": [
        {
          "internalType": "string",
          "name": "",
          "type": "string"
        }
      ],
      "stateMutability": "view",
      "type": "function"
    },
    {
      "inputs": [],
      "name": "owner",
      "outputs": [
        {
          "internalType": "address",
          "name": "",
          "type": "address"
        }
      ],
      "stateMutability": "view",
      "type": "function"
    },
    {
      "inputs": [
        {
          "internalType": "uint256",
          "name": "tokenId",
          "type": "uint256"
        }
      ],
      "name": "ownerOf",
      "outputs": [
        {
          "internalType": "address",
          "name": "",
          "type": "address"
        }
      ],
      "stateMutability": "view",
      "type": "function"
    },
    {
      "inputs": [],
      "name": "propertyCount",
      "outputs": [
        {
          "internalType": "uint256",
          "name": "",
          "type": "uint256"
        }
      ],
      "stateMutability": "view",
      "type": "function"
    },
    {
      "inputs": [
        {
          "internalType": "string",
          "name": "_name",
          "type": "string"
        },
        {
          "internalType": "address",
          "name": "_owner",
          "type": "address"
        },
        {
          "internalType": "string",
          "name": "_partnershipAgreementUrl",
          "type": "string"
        },
        {
          "internalType": "string",
          "name": "_maintenanceAgreementUrl",
          "type": "string"
        },
        {
          "internalType": "string",
          "name": "_rentAgreementUrl",
          "type": "string"
        },
        {
          "internalType": "string",
          "name": "_imageUrl",
          "type": "string"
        }
      ],
      "name": "registerProperty",
      "outputs": [],
      "stateMutability": "nonpayable",
      "type": "function"
    },
    {
      "inputs": [],
      "name": "renounceOwnership",
      "outputs": [],
      "stateMutability": "nonpayable",
      "type": "function"
    },
    {
      "inputs": [
        {
          "internalType": "address",
          "name": "from",
          "type": "address"
        },
        {
          "internalType": "address",
          "name": "to",
          "type": "address"
        },
        {
          "internalType": "uint256",
          "name": "tokenId",
          "type": "uint256"
        }
      ],
      "name": "safeTransferFrom",
      "outputs": [],
      "stateMutability": "nonpayable",
      "type": "function"
    },
    {
      "inputs": [
        {
          "internalType": "address",
          "name": "from",
          "type": "address"
        },
        {
          "internalType": "address",
          "name": "to",
          "type": "address"
        },
        {
          "internalType": "uint256",
          "name": "tokenId",
          "type": "uint256"
        },
        {
          "internalType": "bytes",
          "name": "data",
          "type": "bytes"
        }
      ],
      "name": "safeTransferFrom",
      "outputs": [],
      "stateMutability": "nonpayable",
      "type": "function"
    },
    {
      "inputs": [
        {
          "internalType": "address",
          "name": "operator",
          "type": "address"
        },
        {
          "internalType": "bool",
          "name": "approved",
          "type": "bool"
        }
      ],
      "name": "setApprovalForAll",
      "outputs": [],
      "stateMutability": "nonpayable",
      "type": "function"
    },
    {
      "inputs": [
        {
          "internalType": "bytes4",
          "name": "interfaceId",
          "type": "bytes4"
        }
      ],
      "name": "supportsInterface",
      "outputs": [
        {
          "internalType": "bool",
          "name": "",
          "type": "bool"
        }
      ],
      "stateMutability": "view",
      "type": "function"
    },
    {
      "inputs": [],
      "name": "symbol",
      "outputs": [
        {
          "internalType": "string",
          "name": "",
          "type": "string"
        }
      ],
      "stateMutability": "view",
      "type": "function"
    },
    {
      "inputs": [
        {
          "internalType": "uint256",
          "name": "tokenId",
          "type": "uint256"
        }
      ],
      "name": "tokenURI",
      "outputs": [
        {
          "internalType": "string",
          "name": "",
          "type": "string"
        }
      ],
      "stateMutability": "view",
      "type": "function"
    },
    {
      "inputs": [
        {
          "internalType": "address",
          "name": "from",
          "type": "address"
        },
        {
          "internalType": "address",
          "name": "to",
          "type": "address"
        },
        {
          "internalType": "uint256",
          "name": "tokenId",
          "type": "uint256"
        }
      ],
      "name": "transferFrom",
      "outputs": [],
      "stateMutability": "nonpayable",
      "type": "function"
    },
    {
      "inputs": [
        {
          "internalType": "address",
          "name": "newOwner",
          "type": "address"
        }
      ],
      "name": "transferOwnership",
      "outputs": [],
      "stateMutability": "nonpayable",
      "type": "function"
    }
  ],
  "bytecode": "0x608060405234801561001057600080fd5b50336040518060400160405280600d81526020016c1499585b115cdd185d19539195609a1b815250604051806040016040528060048152602001631491539560e21b815250816000908161006491906101a2565b50600161007182826101a2565b5050506001600160a01b0381166100a257604051631e4fbdf760e01b81526000600482015260240160405180910390fd5b6100ab816100b1565b50610260565b600680546001600160a01b038381166001600160a01b0319831681179093556040519116919082907f8be0079c531659141344cd1fd0a4f28419497f9722a3daafe3b4186f6b6457e090600090a35050565b634e487b7160e01b600052604160045260246000fd5b600181811c9082168061012d57607f821691505b60208210810361014d57634e487b7160e01b600052602260045260246000fd5b50919050565b601f82111561019d57806000526020600020601f840160051c8101602085101561017a5750805b601f840160051c820191505b8181101561019a5760008155600101610186565b50505b505050565b81516001600160401b038111156101bb576101bb610103565b6101cf816101c98454610119565b84610153565b6020601f82116001811461020357600083156101eb5750848201515b600019600385901b1c1916600184901b17845561019a565b600084815260208120601f198516915b828110156102335787850151825560209485019460019092019101610213565b50848210156102515786840151600019600387901b60f8161c191681555b50505050600190811b01905550565b611a938061026f6000396000f3fe608060405234801561001057600080fd5b506004361061012c5760003560e01c8063715018a6116100ad578063c361a33511610071578063c361a33514610282578063c87b56dd1461028a578063e57ea49b1461029d578063e985e9c5146102b0578063f2fde38b146102c357600080fd5b8063715018a61461023b5780638da5cb5b1461024357806395d89b4114610254578063a22cb4651461025c578063b88d4fde1461026f57600080fd5b806332665ffb116100f457806332665ffb146101c15780633467832d146101e157806342842e0e146101f45780636352211e1461020757806370a082311461021a57600080fd5b806301ffc9a71461013157806306fdde0314610159578063081812fc1461016e578063095ea7b31461019957806323b872dd146101ae575b600080fd5b61014461013f3660046113c6565b6102d6565b60405190151581526020015b60405180910390f35b610161610328565b6040516101509190611433565b61018161017c366004611446565b6103ba565b6040516001600160a01b039091168152602001610150565b6101ac6101a736600461147b565b6103e3565b005b6101ac6101bc3660046114a5565b6103f2565b6101d46101cf366004611446565b610482565b60405161015091906114e2565b6101ac6101ef366004611599565b610833565b6101ac6102023660046114a5565b6108f1565b610181610215366004611446565b610911565b61022d6102283660046115c5565b61091c565b604051908152602001610150565b6101ac610964565b6006546001600160a01b0316610181565b610161610978565b6101ac61026a3660046115e0565b610987565b6101ac61027d3660046116ac565b610992565b60075461022d565b610161610298366004611446565b6109aa565b6101ac6102ab366004611748565b610a1f565b6101446102be366004611843565b610bea565b6101ac6102d13660046115c5565b610c18565b60006001600160e01b031982166380ac58cd60e01b148061030757506001600160e01b03198216635b5e139f60e01b145b8061032257506301ffc9a760e01b6001600160e01b03198316145b92915050565b6060600080546103379061186d565b80601f01602080910402602001604051908101604052809291908181526020018280546103639061186d565b80156103b05780601f10610385576101008083540402835291602001916103b0565b820191906000526020600020905b81548152906001019060200180831161039357829003601f168201915b5050505050905090565b60006103c582610c56565b506000828152600460205260409020546001600160a01b0316610322565b6103ee828233610c8f565b5050565b6001600160a01b03821661042157604051633250574960e11b8152600060048201526024015b60405180910390fd5b600061042e838333610c9c565b9050836001600160a01b0316816001600160a01b03161461047c576040516364283d7b60e01b81526001600160a01b0380861660048301526024820184905282166044820152606401610418565b50505050565b6104c46040518060e001604052806000815260200160608152602001606081526020016060815260200160608152602001606081526020016000151581525090565b60006104cf83610911565b6001600160a01b03160361051a5760405162461bcd60e51b8152602060048201526012602482015271141c9bdc195c9d1e481b9bdd08199bdd5b9960721b6044820152606401610418565b600860008381526020019081526020016000206040518060e0016040529081600082015481526020016001820180546105529061186d565b80601f016020809104026020016040519081016040528092919081815260200182805461057e9061186d565b80156105cb5780601f106105a0576101008083540402835291602001916105cb565b820191906000526020600020905b8154815290600101906020018083116105ae57829003601f168201915b505050505081526020016002820180546105e49061186d565b80601f01602080910402602001604051908101604052809291908181526020018280546106109061186d565b801561065d5780601f106106325761010080835404028352916020019161065d565b820191906000526020600020905b81548152906001019060200180831161064057829003601f168201915b505050505081526020016003820180546106769061186d565b80601f01602080910402602001604051908101604052809291908181526020018280546106a29061186d565b80156106ef5780601f106106c4576101008083540402835291602001916106ef565b820191906000526020600020905b8154815290600101906020018083116106d257829003601f168201915b505050505081526020016004820180546107089061186d565b80601f01602080910402602001604051908101604052809291908181526020018280546107349061186d565b80156107815780601f1061075657610100808354040283529160200191610781565b820191906000526020600020905b81548152906001019060200180831161076457829003601f168201915b5050505050815260200160058201805461079a9061186d565b80601f01602080910402602001604051908101604052809291908181526020018280546107c69061186d565b80156108135780601f106107e857610100808354040283529160200191610813565b820191906000526020600020905b8154815290600101906020018083116107f657829003601f168201915b50505091835250506006919091015460ff16151560209091015292915050565b61083b610d95565b600061084683610911565b6001600160a01b0316036108925760405162461bcd60e51b8152602060048201526013602482015272125b9d985b1a59081c1c9bdc195c9d1e481251606a1b6044820152606401610418565b600082815260086020908152604091829020600601805460ff1916600117905590516001600160a01b038316815283917fc231e91a72847bed4aa7fbf4a0541bca6938e13eeaddbf3b0a68691f358f3984910160405180910390a25050565b61090c83838360405180602001604052806000815250610992565b505050565b600061032282610c56565b60006001600160a01b038216610948576040516322718ad960e21b815260006004820152602401610418565b506001600160a01b031660009081526003602052604090205490565b61096c610d95565b6109766000610dc2565b565b6060600180546103379061186d565b6103ee338383610e14565b61099d8484846103f2565b61047c3385858585610eb3565b60606109b582610c56565b5060006109cd60408051602081019091526000815290565b905060008151116109ed5760405180602001604052806000815250610a18565b806109f784610fde565b604051602001610a089291906118a7565b6040516020818303038152906040525b9392505050565b610a27610d95565b6000865111610a685760405162461bcd60e51b815260206004820152600d60248201526c13985b59481c995c5d5a5c9959609a1b6044820152606401610418565b6001600160a01b038516610aae5760405162461bcd60e51b815260206004820152600d60248201526c24b73b30b634b21037bbb732b960991b6044820152606401610418565b60078054906000610abe836118d6565b9091555050600754610ad08682611071565b6040805160e08101825282815260208082018a8152828401899052606083018890526080830187905260a08301869052600060c0840181905285815260089092529290208151815591519091906001820190610b2c9082611944565b5060408201516002820190610b419082611944565b5060608201516003820190610b569082611944565b5060808201516004820190610b6b9082611944565b5060a08201516005820190610b809082611944565b5060c091909101516006909101805460ff19169115159190911790556040516001600160a01b0387169082907f48f60036379fd7c4097915cf4b2dcab366c2d3881ae8b3cb2c19d6f7e35719b990610bd9908b90611433565b60405180910390a350505050505050565b6001600160a01b03918216600090815260056020908152604080832093909416825291909152205460ff1690565b610c20610d95565b6001600160a01b038116610c4a57604051631e4fbdf760e01b815260006004820152602401610418565b610c5381610dc2565b50565b6000818152600260205260408120546001600160a01b03168061032257604051637e27328960e01b815260048101849052602401610418565b61090c838383600161108b565b6000828152600260205260408120546001600160a01b0390811690831615610cc957610cc9818486611191565b6001600160a01b03811615610d0757610ce660008560008061108b565b6001600160a01b038116600090815260036020526040902080546000190190555b6001600160a01b03851615610d36576001600160a01b0385166000908152600360205260409020805460010190555b60008481526002602052604080822080546001600160a01b0319166001600160a01b0389811691821790925591518793918516917fddf252ad1be2c89b69c2b068fc378daa952ba7f163c4a11628f55a4df523b3ef91a4949350505050565b6006546001600160a01b031633146109765760405163118cdaa760e01b8152336004820152602401610418565b600680546001600160a01b038381166001600160a01b0319831681179093556040519116919082907f8be0079c531659141344cd1fd0a4f28419497f9722a3daafe3b4186f6b6457e090600090a35050565b6001600160a01b038216610e4657604051630b61174360e31b81526001600160a01b0383166004820152602401610418565b6001600160a01b03838116600081815260056020908152604080832094871680845294825291829020805460ff191686151590811790915591519182527f17307eab39ab6107e8899845ad3d59bd9653f200f220920489ca2b5937696c31910160405180910390a3505050565b6001600160a01b0383163b15610fd757604051630a85bd0160e11b81526001600160a01b0384169063150b7a0290610ef5908890889087908790600401611a03565b6020604051808303816000875af1925050508015610f30575060408051601f3d908101601f19168201909252610f2d91810190611a40565b60015b610f99573d808015610f5e576040519150601f19603f3d011682016040523d82523d6000602084013e610f63565b606091505b508051600003610f9157604051633250574960e11b81526001600160a01b0385166004820152602401610418565b805160208201fd5b6001600160e01b03198116630a85bd0160e11b14610fd557604051633250574960e11b81526001600160a01b0385166004820152602401610418565b505b5050505050565b60606000610feb836111f5565b600101905060008167ffffffffffffffff81111561100b5761100b61161c565b6040519080825280601f01601f191660200182016040528015611035576020820181803683370190505b5090508181016020015b600019016f181899199a1a9b1b9c1cb0b131b232b360811b600a86061a8153600a850494508461103f57509392505050565b6103ee8282604051806020016040528060008152506112cd565b808061109f57506001600160a01b03821615155b156111615760006110af84610c56565b90506001600160a01b038316158015906110db5750826001600160a01b0316816001600160a01b031614155b80156110ee57506110ec8184610bea565b155b156111175760405163a9fbf51f60e01b81526001600160a01b0384166004820152602401610418565b811561115f5783856001600160a01b0316826001600160a01b03167f8c5be1e5ebec7d5bd14f71427d1e84f3dd0314c0f7b2291e5b200ac8c7c3b92560405160405180910390a45b505b5050600090815260046020526040902080546001600160a01b0319166001600160a01b0392909216919091179055565b61119c8383836112e5565b61090c576001600160a01b0383166111ca57604051637e27328960e01b815260048101829052602401610418565b60405163177e802f60e01b81526001600160a01b038316600482015260248101829052604401610418565b60008072184f03e93ff9f4daa797ed6e38ed64bf6a1f0160401b83106112345772184f03e93ff9f4daa797ed6e38ed64bf6a1f0160401b830492506040015b6d04ee2d6d415b85acef81000000008310611260576d04ee2d6d415b85acef8100000000830492506020015b662386f26fc10000831061127e57662386f26fc10000830492506010015b6305f5e1008310611296576305f5e100830492506008015b61271083106112aa57612710830492506004015b606483106112bc576064830492506002015b600a83106103225760010192915050565b6112d7838361134b565b61090c336000858585610eb3565b60006001600160a01b038316158015906113435750826001600160a01b0316846001600160a01b0316148061131f575061131f8484610bea565b8061134357506000828152600460205260409020546001600160a01b038481169116145b949350505050565b6001600160a01b03821661137557604051633250574960e11b815260006004820152602401610418565b600061138383836000610c9c565b90506001600160a01b0381161561090c576040516339e3563760e11b815260006004820152602401610418565b6001600160e01b031981168114610c5357600080fd5b6000602082840312156113d857600080fd5b8135610a18816113b0565b60005b838110156113fe5781810151838201526020016113e6565b50506000910152565b6000815180845261141f8160208601602086016113e3565b601f01601f19169290920160200192915050565b602081526000610a186020830184611407565b60006020828403121561145857600080fd5b5035919050565b80356001600160a01b038116811461147657600080fd5b919050565b6000806040838503121561148e57600080fd5b6114978361145f565b946020939093013593505050565b6000806000606084860312156114ba57600080fd5b6114c38461145f565b92506114d16020850161145f565b929592945050506040919091013590565b60208152815160208201526000602083015160e06040840152611509610100840182611407565b90506040840151601f198483030160608501526115268282611407565b9150506060840151601f198483030160808501526115448282611407565b9150506080840151601f198483030160a08501526115628282611407565b91505060a0840151601f198483030160c08501526115808282611407565b91505060c0840151151560e08401528091505092915050565b600080604083850312156115ac57600080fd5b823591506115bc6020840161145f565b90509250929050565b6000602082840312156115d757600080fd5b610a188261145f565b600080604083850312156115f357600080fd5b6115fc8361145f565b91506020830135801515811461161157600080fd5b809150509250929050565b634e487b7160e01b600052604160045260246000fd5b60008067ffffffffffffffff84111561164d5761164d61161c565b50604051601f19601f85018116603f0116810181811067ffffffffffffffff8211171561167c5761167c61161c565b60405283815290508082840185101561169457600080fd5b83836020830137600060208583010152509392505050565b600080600080608085870312156116c257600080fd5b6116cb8561145f565b93506116d96020860161145f565b925060408501359150606085013567ffffffffffffffff8111156116fc57600080fd5b8501601f8101871361170d57600080fd5b61171c87823560208401611632565b91505092959194509250565b600082601f83011261173957600080fd5b610a1883833560208501611632565b60008060008060008060c0878903121561176157600080fd5b863567ffffffffffffffff81111561177857600080fd5b61178489828a01611728565b9650506117936020880161145f565b9450604087013567ffffffffffffffff8111156117af57600080fd5b6117bb89828a01611728565b945050606087013567ffffffffffffffff8111156117d857600080fd5b6117e489828a01611728565b935050608087013567ffffffffffffffff81111561180157600080fd5b61180d89828a01611728565b92505060a087013567ffffffffffffffff81111561182a57600080fd5b61183689828a01611728565b9150509295509295509295565b6000806040838503121561185657600080fd5b61185f8361145f565b91506115bc6020840161145f565b600181811c9082168061188157607f821691505b6020821081036118a157634e487b7160e01b600052602260045260246000fd5b50919050565b600083516118b98184602088016113e3565b8351908301906118cd8183602088016113e3565b01949350505050565b6000600182016118f657634e487b7160e01b600052601160045260246000fd5b5060010190565b601f82111561090c57806000526020600020601f840160051c810160208510156119245750805b601f840160051c820191505b81811015610fd75760008155600101611930565b815167ffffffffffffffff81111561195e5761195e61161c565b6119728161196c845461186d565b846118fd565b6020601f8211600181146119a6576000831561198e5750848201515b600019600385901b1c1916600184901b178455610fd7565b600084815260208120601f198516915b828110156119d657878501518255602094850194600190920191016119b6565b50848210156119f45786840151600019600387901b60f8161c191681555b50505050600190811b01905550565b6001600160a01b0385811682528416602082015260408101839052608060608201819052600090611a3690830184611407565b9695505050505050565b600060208284031215611a5257600080fd5b8151610a18816113b056fea264697066735822122039c1031c56079dfda7cdbd97844e261aaeadad1afd0b90421ad5e44a1f72174c64736f6c634300081c0033",
  "linkReferences": {},
  "deployedLinkReferences": {}
}